:020000040800F2
:10000000A0080020890100085F1B0008B91900083A
:100010005D1B00088F02000811220008000000008C
:10002000000000000000000000000000511D00085A
:10003000C502000800000000611B0008531D0008F5
:10004000A3010008A3010008A3010008A301000800
:10005000A3010008A3010008A3010008A3010008F0
:10006000A3010008A3010008A3010008A3010008E0
:10007000A3010008A3010008AD020008B9020008AE
:10008000A3010008A3010008A3010008A3010008C0
:10009000A3010008A3010008A3010008A3010008B0
:1000A000A3010008B91D0008A3010008A30100086E
:1000B000C51D0008A3010008A3010008A301000852
:1000C000A3010008A3010008A3010008A301000880
:1000D000A3010008F9210008A30100080522000877
:1000E000A3010008A3010008A301000800F002F822
:1000F00000F03AF80AA090E8000C82448344AAF188
:100100000107DA4501D100F02FF8AFF2090EBAE885
:100110000F0013F0010F18BFFB1A43F0010318473B
:10012000F426000014270000103A24BF78C878C1D4
:10013000FAD8520724BF30C830C144BF04680C60ED
:10014000704700000023002400250026103A28BF35
:1001500078C1FBD8520728BF30C148BF0B60704739
:100160001FB51FBD10B510BD00F058F81146FFF7C0
:10017000F7FF02F061FA00F076F803B4FFF7F2FF40
:1001800003BC00F07DF8000009488047094800479B
:10019000FEE7FEE7FEE7FEE7FEE7FEE7FEE7FEE737
:1001A000FEE7FEE704480549054A064B7047000094
:1001B000B51D0008ED000008A0020020A0080020E6
:1001C000A0040020A00400204FF0000200B5134658
:1001D00094469646203922BFA0E80C50A0E80C5067
:1001E000B1F12001BFF4F7AF090728BFA0E80C5018
:1001F00048BF0CC05DF804EB890028BF40F8042B11
:1002000008BF704748BF20F8022B11F0804F18BF7D
:1002100000F8012B7047704770477047754600F033
:100220002BF8AE4605006946534620F00700854688
:1002300018B020B5FFF7B6FFBDE820404FF000062C
:100240004FF000074FF000084FF0000B21F00701BE
:10025000AC46ACE8C009ACE8C009ACE8C009ACE801
:10026000C0098D46704710B50446AFF300802046A4
:10027000BDE81040FFF781BF0048704740020020F2
:1002800001491820ABBEFEE7260002007047FEE7DA
:100290000346002010B50246491E04E09C5C521C37
:1002A0002044C0B2D2B28A42F8DB10BD014800F04F
:1002B000E3B80000FC010020014800F0DDB80000B8
:1002C000B8010020704772B6FEE7042101700021DA
:1002D000C1701B2282701F224270012202710182B2
:1002E00001818181C180C181418241818182C1823C
:1002F000704710B5044602F041F8204602F0C2F8FB
:10030000204602F02BF9204602F034F9204602F094
:100310003DF9204602F046F9204602F04FF920460A
:1003200002F058F9204602F061F9204602F032F856
:10033000204602F03BF8204602F044F8204602F046
:100340004DF8204602F056F8204602F05FF82046AD
:1003500002F068F8204602F071F8204602F07AF8C0
:10036000204602F083F8204602F098F8204602F07A
:10037000A1F8204602F0AAF8204602F0B3F8204681
:1003800002F0BCF8204602F0C5F8204602F0CEF894
:100390002046BDE8104002F0D5B810B590F8211005
:1003A0000022022905D00421816380F82020012049
:1003B00010BD01680B6823F00E030B6001680B6829
:1003C00023F001030B6090F84030C46B012101FA67
:1003D00003F3636080F8211080F82020104610BDE0
:1003E00010B590F821100024022903D00421816364
:1003F00001243DE001680A6822F00E020A600168EB
:100400000A6822F001020A601A4A0168914201D189
:10041000012121E0174A1432914201D110211BE041
:10042000144A2832914201D1891515E0114A3C3213
:10043000914201D189140FE00E4A5032914202D10B
:100440004FF4803108E00B4A6432914202D14FF4FC
:10045000801101E04FF08071064A083A5160012195
:1004600080F82110002180F82010416B01B18847ED
:10047000204610BD080002402DE9F05FC16B0C68FA
:1004800001680B68D0F840C0042202FA0CF2494D12
:10049000DFF824A1494E4A4FDFF828B1DFF828E100
:1004A00022422CD05A072AD50A68920603D40A6839
:1004B00022F004020A600168A94201D1042219E075
:1004C000514501D1402215E0B14202D14FF4806282
:1004D00010E0B94202D14FF480420BE0594502D1FD
:1004E0004FF4802206E0714502D14FF4800201E012
:1004F0004FF080622F4908394A60C16A3BE04FF0F3
:10050000020808FA0CF818EA040F4FF000094FF03F
:10051000010235D05FEA837832D50B689B0605D49B
:100520000B6823F00A030B6080F821200168A942C0
:1005300001D1022219E0514501D1202215E0B1423A
:1005400002D14FF4007210E0B94202D14FF40052D0
:100550000BE0594502D14FF4003206E0714502D15B
:100560004FF4001201E04FF00072124908394A605E
:1005700080F82090816A00291AD0BDE8F05F084712
:10058000082505FA0CF5254212D01B0710D50B687B
:1005900023F00E030B6090F84010C36B02FA01F1D8
:1005A0005960826380F8212080F82090016BE2E797
:1005B000BDE8F09F080002401C00024030000240ED
:1005C00044000240580002406C00024030B528B39D
:1005D00008C8134914221944B1FBF2F18900C16320
:1005E00010498163022141771A6843F6F0718A430A
:1005F000D0E900142143D0E902452C43214304698A
:100600002143446921438469214311431960002136
:100610004163012242770177084630BD012030BD99
:10062000F8FFFDBF000002402DE9F84FDFF8B89158
:100630000024A9F1040B23460F2709F1040AABF1AA
:10064000040EC9E00125A5402A40AA427DD1674E8B
:10065000D1F804C0ACEB0608B44532D014DCBCF1D0
:10066000030F3AD009DCBCF1000F2AD0BCF1010F16
:100670001CD0BCF1020F31D11DE0BCF1110F17D01D
:10068000BCF1120F2AD119E0B8F5881F19D006DC89
:10069000B8F5803F15D0B8F5801F1FD111E0B8F52F
:1006A000001F0ED0B8F5041F18D10AE0CB6815E082
:1006B000CB681B1D12E0CB6808330FE0CB680C330E
:1006C0000CE08B682BB1012B4FF0080303D0456180
:1006D00004E0042302E0056100E00023FF2A01D8C2
:1006E000064601E000F104064FEA840501D9A5F1B0
:1006F0002005D6F8008007FA05FC28EA0C0803FA62
:1007000005F548EA0508C6F800804D68ED0062D599
:10071000374DAE6946F00106AE61AD6924F00306BF
:1007200005F001050095334D06EB050CDCF808508B
:10073000A607360F07FA06F825EA0805DFF8B8809D
:10074000404503D14FF0000817E044E0DFF8AC80EB
:10075000404502D14FF001080FE0DFF8A48040458A
:1007600002D14FF0020808E0DFF89880404502D13E
:100770004FF0030801E04FF0040808FA06F848EAD1
:100780000508CCF808804D68D9F80060ED024D46A8
:1007900001D5164300E096432E604D68DAF80060FC
:1007A000AD02554601D5164300E096432E604D68D4
:1007B000DBF80060AD035D4601D5164300E09643CB
:1007C0002E604D68DEF80060ED03754601D51643D6
:1007D00000E096432E60641C0D682A46E5407FF4D5
:1007E00031AFBDE8F88F000008040140000011108F
:1007F000001002400000014000080140000C0140D0
:1008000000100140001401400AB101617047090461
:10081000FBE7000001488068704700000C000020E2
:100820000248816802781144816070470C00002002
:10083000074810B5016841F010010160032000F085
:1008400075F80F2000F006F800F024F8002010BD25
:100850000020024070B50D4D04464FF47A7128789F
:10086000B1FBF0F00A490968B1FBF0F000F0DCFAE6
:1008700048B9102C07D200222146501E00F036F84D
:1008800000206C6070BD012070BD00000C000020D5
:10089000180000200C4808B5816941F00101816110
:1008A000816901F001010091C16941F08051C1618C
:1008B000C06900F0805000900448416821F0E06178
:1008C00041F00071416008BD00100240000001408D
:1008D000002809DB00F01F0201219140400980003F
:1008E00000F1E020C0F8001170470000F0B40E4B9A
:1008F0001B680C46C3F30223C3F10705042D00D97E
:100900000425191D072901D2002300E0DB1E012662
:1009100006FA05F1491E214099409E40761E164078
:100920003143F0BC01F075BC0CED00E0064900F06D
:10093000070208684FF6FF03184040EA0220034A06
:1009400010430860704700000CED00E00000FA055D
:100950002DE9F0470F46050061D0434E306800F0A6
:100960000700B84209D2306820F0070038433060F1
:10097000306800F00700B84251D128683B4C81072D
:1009800012D5400703D5606840F4E06060602878C5
:10099000000703D5606840F4605060606068A96833
:1009A00020F0F000084360602878C00728D068680D
:1009B000012810D02168022810D0890700292EDADA
:1009C000616821F0030101436160FFF723FF804666
:1009D00041F288390DE021688903EFE78901EDE7ED
:1009E000FFF718FFA0EB0801494502D90320BDE835
:1009F000F0876068696800F00C00B0EB810FEFD100
:100A0000306800F00700B8420BD9306820F00700CA
:100A100038433060306800F00700B84201D0012050
:100A2000E5E72878400705D56068E96820F4E060CC
:100A3000084360602878000706D56068296920F4BB
:100A4000605040EAC100606000F038F86168084A10
:100A5000C1F30311515CC8400649086006480068AC
:100A6000FFF7F8FE0020C2E700200240001002401D
:100A7000FA2700081800002010000020044805494B
:100A800000684968044AC1F30221515CC8407047BC
:100A900018000020001002400A28000804480549F8
:100AA00000684968044AC1F3C221515CC8407047DC
:100AB00018000020001002400A2800080E4A516861
:100AC0000E4801F00C03042B11D0082B0FD10C4859
:100AD000C1F38343C903C05C0AD55168084AC1F316
:100AE0004041921E515C054A5043B0FBF1F0704703
:100AF00004494843704700000010024000127A0089
:100B0000EA27000800093D002DE9F84F040070D0E5
:100B10002078C04DC00749D06868C0F38100012823
:100B200007D06868C0F38100022809D16868C00353
:100B300006D52868800339D560680028E7D035E0FD
:100B40006068B0F5803F0BD010B1B0F5A02F11D088
:100B5000286820F480302860286820F4802002E093
:100B6000286840F480302860606890B1FFF752FE3A
:100B700006460AE0286840F480202860F0E700BFBD
:100B8000FFF748FE801B642873D828688003F7D5D8
:100B90000CE0FFF73FFE064605E000BFFFF73AFE18
:100BA000801B6428F0D828688003F7D420789A4EF8
:100BB00080074FF001094FF0000839D5686810F040
:100BC0000C0F07D06868C0F38100022809D168685B
:100BD000C00306D42868800714D52069012808D1ED
:100BE00010E02069B0B1C6F80090FFF713FE074689
:100BF00005E00AE1FFF70EFEC01B0228C4D82868F2
:100C00008007F7D52868616920F0F80040EAC10044
:100C100028600DE0C6F80080FFF7FCFD074604E001
:100C2000FFF7F8FDC01B022823D828688007F7D4F7
:100C3000207800072CD57948A169D9B1C0F8009077
:100C4000FFF7E8FD074604E0FFF7E4FDC01B0228BC
:100C50000FD8686A8007F7D571484FF4FA510068D9
:100C6000B0FBF1F0009000BF0098411E0091FAD255
:100C70000EE080E0C0F80080FFF7CCFD074604E0FE
:100C8000FFF7C8FDC01B022875D8686A8007F7D433
:100C90002078400760D5E8690027C00008D4E869DB
:100CA00040F08050E861E869012700F08050009032
:100CB0005C480168C90513D40168834641F480711A
:100CC0000160FFF7A7FD824606E000BFFFF7A2FD27
:100CD000A0EB0A0064284ED8DBF80000C005F5D56B
:100CE000E06801280AD008B1052813D0286A20F04E
:100CF00001002862286A20F0040002E0286A40F01F
:100D000001002862E06841F2883B98B1FFF782FD5C
:100D100082460BE0286A40F004002862EEE700BF3C
:100D2000FFF778FDA0EB0A0159455AD8286A8007D9
:100D3000F6D50CE0FFF76EFD824605E0FFF76AFD91
:100D4000A0EB0A0159454CD8286A8007F6D41FB198
:100D5000E86920F08050E861E06988B36968C1F310
:100D60008101022944D00228C6F8608004D0FFF730
:100D700051FD044638E034E0FFF74CFD074604E03F
:100D8000FFF748FDC01B02282BD828688001F7D444
:100D9000206AB0F5803F05D16868A16820F4003072
:100DA00008436860D4E908010843696821F47411B4
:100DB00008436860C6F86090FFF72CFD044606E023
:100DC00025E000BFFFF726FD001B022809D8286890
:100DD0008001F7D51BE000BFFFF71CFD001B0228B8
:100DE00002D90320BDE8F88F28688001F4D40EE012
:100DF0000128F7D06868226A00F48031914204D15A
:100E0000616A00F47010884201D00120EAE70020F6
:100E1000E8E7000000100240000042428004424225
:100E2000180000200070004010B5401EB0F1807F17
:100E300001D3012010BD4FF0E02460610F21601745
:100E400001F0E7F90020A06107202061002010BD1B
:100E50007047704770B590F83C20012A26D00124D5
:100E600080F83C40022280F83D2003685A689D6863
:100E700022F070060A6832435A600D4B02689A42AB
:100E800008D0B2F1804F05D00A4B9A4202D00A4BEB
:100E90009A4204D1496825F080031943916080F893
:100EA0003D40002180F83C10084670BD022070BD16
:100EB000002C0140000400400008004010B5040070
:100EC00003D094F83D0010B107E0012010BD0020D0
:100ED00084F83C00204600F01FF8022084F83D0012
:100EE000211D206800F074FF012084F8460084F87A
:100EF0003E0084F83F0084F8400084F8410084F804
:100F0000420084F8430084F8440084F8450084F8E3
:100F10003D00002010BD000008B5154A01681548C5
:100F200091420ED1816941F40061816180690022A2
:100F300000F40060009002211920FFF7D7FC19206F
:100F400010E0B1F1804F11D1C16941F00101C161DF
:100F5000C069002200F00100009001211C20FFF771
:100F6000C5FC1C20BDE80840FFF7B2BC08BD00006E
:100F7000002C01400010024090F83D10012901D0E2
:100F800001207047022180F83D100168CA6842F0D4
:100F90000102CA6000680B49884208D0B0F1804F56
:100FA00005D00949884202D00849884204D18168A5
:100FB00001F00701062903D0016841F00101016039
:100FC00000207047002C0140000400400008004051
:100FD00070B5044690F83C000025012817D0012682
:100FE00084F83C60022084F83D002068826822F08A
:100FF000770222F47F4282600868502838D00DDCE6
:1010000020284FD005DC90B3102811D14AE00220EF
:1010100070BD302846D040280AD13BE060282FD050
:1010200070280DD0B0F5805F03D0B0F5005F12D00E
:10103000012584F83D60002084F83C00284670BDFE
:10104000CB68D1E90121206800F0F8FE20688168B2
:1010500041F0770109E0CB68D1E90121206800F077
:10106000EDFE2068816841F480418160E1E719E08C
:10107000CA684968206800F0F3FE5021206806E045
:10108000CA684968206800F0FCFE6021206800F012
:10109000DFFECEE7CA684968206800F0E1FE402123
:1010A0002068F4E7226801461046F0E7704770B503
:1010B0000446006801694FF00005C943890715D44B
:1010C000C168C943890711D4E91E01610120207755
:1010D000206880698007204602D0FFF7E7FF04E020
:1010E00000F098F8204600F096F82577206801690E
:1010F000C943490717D4C168C943490713D46FF0DE
:1011000004010161022020772068806910F4407F8B
:10111000204602D0FFF7CAFF04E000F07BF820462B
:1011200000F079F8257720680169C943090716D4CA
:10113000C168C943090712D46FF008010161042096
:1011400020772068C0698007204602D0FFF7AEFFF5
:1011500004E000F05FF8204600F05DF82577206895
:101160000169C943C90617D4C168C943C90613D464
:101170006FF010010161082020772068C06910F429
:10118000407F204602D0FFF791FF04E000F042F8D4
:10119000204600F040F8257720680169C943C90757
:1011A00008D1C168C943C90704D1891E016120461D
:1011B00000F032F820680169C943090609D4C16802
:1011C000C943090605D46FF0800101612046FFF78D
:1011D0003FFE20680169C943490609D4C168C94373
:1011E000490605D46FF040010161204600F022F865
:1011F00020680169C94389060BD4C168C9438906BF
:1012000007D46FF0200101612046BDE87040FFF770
:1012100020BE70BD70477047044900680968884265
:1012200002D1034800F084BA70470000E0000020BB
:10123000540000207047704770470000F8B50168FF
:1012400004460868CA684B6910F00F0F4FF000059C
:1012500059D003F0010602F49077374365D0C107F7
:1012600005D0D10503D5616C41F0010161644107EE
:1012700005D5D90703D0616C41F002016164810793
:1012800005D5D90703D0616C41F004016164010701
:1012900007D502F02001314303D0616C41F0080111
:1012A0006164616C00293AD0800604D5900602D5AD
:1012B000204600F080FE20684069616CC0F3801019
:1012C000090700D460B3204600F0F5FD20684069AE
:1012D000400621D52068143050E8001F21F040015D
:1012E00040E80012002AF5D1E06BA8B16D494163D6
:1012F000E06BFFF775F8002811D0E06B416B01B08F
:10130000BDE8F040084783060FD593060DD520466B
:10131000BDE8F84000F04FBE2046FFF78DFFF8BD56
:101320002046FFF789FF6564F8BD266B2023012E58
:101330007CD1C6067AD5D60678D50868486800906C
:1013400048694FF00206400640D5E16B08684068E6
:101350000004000CE8D0A28D8242E5D9E0858869BE
:1013600020282DD020680C3050E8001F21F4807117
:1013700040E80012002AF5D12068143050E8001F20
:1013800021F0010140E80012002AF5D12068143054
:1013900050E8001F21F0400140E80012002AF5D17A
:1013A00084F84230256320680C3050E8001F21F09B
:1013B000100140E80012002AF5D1E06BFEF7EDFFC6
:1013C0006663A08DE18D401A81B22AE0A08DE18D87
:1013D000401A81B2E08D0028A6D00029A4D022684E
:1013E0000C3252E8000F20F4907042E80007002F02
:1013F000F5D12068143050E8002F22F0010240E8B7
:101400000027002FF5D184F84230256320680C3086
:1014100050E8002F22F0100240E80023002BF5D105
:1014200066632046FFF707FFF8BDFFE705062BD5EB
:10143000150629D594F841002128F5D1A068B0F50A
:10144000805F01D12069B0B1206A411C216221680E
:1014500000784860E08C401E0004000CE084E3D17A
:101460002068C16821F08001C1602068C16841F036
:101470004001C160D8E7206A0088C0F308004860D6
:10148000206A801C2062E5E74006CDD55006CBD50A
:10149000CA68204622F04002CA6084F8413000F059
:1014A00046F9C1E7A71E000870B5040004D094F8FF
:1014B0004100002510B106E0012070BD84F84050C5
:1014C000204600F023F8242084F841002068C168F9
:1014D00021F40051C160204600F0DAFD2068016966
:1014E00021F4904101612068416921F02A014161A4
:1014F0002068C16841F40051C1606564202084F80F
:10150000410084F842006563002070BDF0B585B0ED
:101510000024009401940294039406460368414811
:101520003F4D022103220715AB424CD1836943F49E
:1015300080438361836903F480430493836943F0A8
:10154000040383618069384D00F0040004900802B0
:10155000CDE90001039269462846FFF765F8CDE919
:101560000074694628460294FFF75EF8304D2F4814
:101570008027C5E90004C5E902472C616C61AC61B4
:101580002846EC61FFF722F808B1FEF79CFEF563F0
:101590006E622648274D143801C5102091C5254894
:1015A00045F810496C61AC61EC61FFF70FF808B1C8
:1015B000FEF789FEB5630022114625206E62FFF713
:1015C00095F9252028E01C4DAB4227D1C36943F48F
:1015D0008023C361C36903F480230493836943F0C8
:1015E000080383618069CDE9007100F00800CDE94E
:1015F0000320124D69462846FFF716F8E814CDE996
:101600000004694628460294FFF70EF800221146AE
:101610002720FFF76BF92720FFF75AF905B0F0BD37
:10162000003801400010024000080140580002400C
:10163000B8010020FC01002000480040000C0140DF
:1016400090F84230202B01D00220704721B11AB10E
:101650000023036300F078BD0120704710B50446F5
:1016600000680849884202D1074800F0B1FA0749EA
:101670002068884204D1BDE81040054800F05FBCF6
:1016800010BD0000003801401C0000200048004050
:101690006C0000202DE9F843044690F841001F46F5
:1016A00016460D46202802D00220BDE8F8837DB101
:1016B00076B100206064212084F84100FFF7AAF889
:1016C000A6848046E684A068B0F5805F02D003E07F
:1016D0000120EAE7206910B12E4600250EE0002621
:1016E0000CE08021204600F04AFDA0B9AEB116F80A
:1016F000010B21684860E08C401EE084E08C43468A
:101700004FF0000200970028EBD14FF04001204637
:1017100000F035FD30B10320C7E735F8020BC0F308
:101720000800E6E7202084F841000020BDE770476C
:101730002DE9F041044600780025514E0A2846D292
:10174000DFE800F0456D6B4705232F7218522089A2
:10175000401C80B220811E2839D32581204600F00C
:10176000E7FD6089401C80B260814A282FD36581E3
:1017700005202BE0E088401C80B2E0801E2826D3A4
:10178000E580BDE8F04100F0F1BFE089401C80B287
:10179000E08146281BD3E5812046BDE8F04100F0FA
:1017A00031BF608A401C80B2608214280FD36582EA
:1017B000204600F0EFFFA08A401C80B2A0825D2886
:1017C00005D3A5820120FEF794FD07202070BDE817
:1017D000F081A089401C80B2A081C828F7D3A581E0
:1017E000BDE8F04100F0B0BF012705E00021384618
:1017F00000F01FFD7F1CFFB27078401C8742F5D3BC
:10180000E08A401C80B2E082B0F57A7FDFD3E582C7
:101810000120FEF76EFDB078D8E7002000E001203F
:10182000BDE8F041FEF765BD30780028208A00F160
:10183000010080B2208207D03228C8D30120FEF7F1
:1018400058FD35702582C2E740F6B8318842BED3D4
:10185000258200210C2000F0ECFC00210D2000F07E
:10186000E8FC00210E2000F0E4FC00210F2000F035
:10187000E0FC0021102000F0DCFC01203070A6E725
:101880000200002010B50446007E01280DD107CCCF
:101890004FF0FF3307C4A4F10C010C220448183C9C
:1018A000FFF7F8FE204600F0E7FB012010BD000026
:1018B0007001002070B5044690F820000D46012804
:1018C00074D194F828000126102811D10846FEF79B
:1018D000FCFC0620287000202218215C401CC0B2AD
:1018E00011741028F8D3012000F007FD84F821605E
:1018F00094F82800202811D12846FEF7E6FC0320A2
:10190000287000202218215C401CC0B211741028DD
:10191000F8D3012000F0F1FC84F8216094F828004D
:10192000902810D12846FEF7D0FC2E7000202218F7
:10193000215C401CC0B211741028F8D3012000F0C3
:10194000DCFC84F8216094F8280040281AD101209A
:10195000FEF7CFFC287816490870092028702079F6
:101960001449642801D91B2006E000EBC00000EBFD
:1019700040006422B0FBF2F00870012000F0BDFCD2
:1019800084F8216094F8280060280CD100202218E7
:10199000215C401CC0B211741028F8D3012000F063
:1019A000ACFC84F82160002084F8200070BD0000A9
:1019B0000400002003000020FEE700002DE9F04FA6
:1019C00085B000242E480094019402940394816908
:1019D00041F010018161816901F010010491816978
:1019E00041F020018161816901F020010491816948
:1019F00041F004018161816901F004010491816970
:101A000041F0080181618069DFF8789000F00800FA
:101A10004FF460450490002229464846FEF7F4FE44
:101A2000DFF864A049F6FF17002239465046FEF75A
:101A3000EBFEDFF858B04FF2FB3800224146584623
:101A4000FEF7E2FE0095022601250396CDE901543A
:101A500069464846FEF7E8FD00970396CDE9015434
:101A600069465046FEF7E0FDCDF800800396CDE9CB
:101A7000015469465846FEF7D7FD05B0BDE8F08F22
:101A8000001002400010014000080140000C01401D
:101A900010B586B000241748009401940294039472
:101AA00004941349059401604721C0E901144FF6DD
:101AB000FF71C0E9031444618461FFF7FFF908B1C5
:101AC00072B6FEE74FF48050009069460948FFF770
:101AD0007FFA08B172B6FEE7049404A9054805949C
:101AE000FFF7B8F9002801D072B6FEE706B010BDC6
:101AF000002C01409800002010B586B00024164844
:101B0000009401940294039404944FF0804105944E
:101B100001604721C0E9011440F2E731C0E9031434
:101B20008461FFF7CBF908B172B6FEE74FF480503D
:101B3000009069460848FFF74BFA08B172B6FEE715
:101B4000049404A904480594FFF784F9002801D0FF
:101B500072B6FEE706B010BDE0000020FEE7FEE72B
:101B60007047000010B5002280F8202080F8212066
:101B700080F8232080F8242080F8222080F8282074
:101B80000263C26280F83420FE2380F82530FF23F0
:101B900080F8263080F8271040F8082B591C40F8B0
:101BA000042C026042608260C260026142610548AA
:101BB000FEF72AFEBDE81040012203490348FFF763
:101BC0003FBD0000000801403F0000202801002028
:101BD00010B5AA2490F82210012211B1012936D1A2
:101BE0000BE090F8231090F8253099422FD1017026
:101BF00080F8222080F8242029E090F8243090F802
:101C00002310C15490F824100F2909D0491CC9B2DF
:101C100080F824100F291AD9EA2400F025F81BE0D7
:101C2000C17B90F826309942F6D1817890F8273020
:101C30009942F1D180F82020016B0122491C0163F7
:101C4000C17880F8281011020448FEF7DDFD01225A
:101C500003490448FFF7F4FC204610BD000801408A
:101C60003F0000202801002010B5002100F8201FAF
:101C70000A46017181704FF480710548FEF7C4FD7A
:101C8000BDE81040012203490348FFF7D9BC00001A
:101C9000000801403F000020280100202DE9F04706
:101CA000044690F821000D46012849D128680A27EA
:101CB000244E00F04000DFF890A0707030786FF094
:101CC000400901280BD000283AD100BF94F8210028
:101CD000012835D1DAF80010C1F8009026E0286814
:101CE00040062DD594F834004FF00008401CC0B2D7
:101CF00084F8340010280ED184F82180E16A002293
:101D0000491CE162010184F834801048FEF77CFD33
:101D10002046FFF7A9FFDAF80010C1F8009086F816
:101D20000080D3E77F1E17F0FF0702D02868000667
:101D3000F8D594F834001034005D686001203070EC
:101D4000BDE8F087000000202801002000080140C5
:101D50007047FEF765BD30B58FB028216846FEF7A5
:101D600033FA14210AA8FEF72FFA01210804CDE95D
:101D700000100024029402250491CDE907504FF48D
:101D8000E01009906846FEF7BFFE08B172B6FEE7A4
:101D90000F20CDE90A054FF48060CDE90C40022107
:101DA0000AA80E94FEF7D4FD002801D072B6FEE713
:101DB0000FB030BD704700000148FFF778B9000050
:101DC000980000200148FFF772B90000E0000020F1
:101DD000F0B50268164B174C174D4FF080479842EC
:101DE00005D0B84203D0A04201D0A84203D122F0CE
:101DF00070064A683243984205D0B84203D0A042E8
:101E000001D0A84203D122F44074CA6822434C692D
:101E100022F08002224302608A68C2620A688262FB
:101E2000984201D10969016301214161F0BD0000BF
:101E3000002C0140000400400008004010B58468F8
:101E400042EA032224F47F440A432243826010BD05
:101E5000826822F070020A4342F0070181607047F5
:101E600010B5036A046A24F001040462846924F052
:101E7000F00444EA021423F00A020A438461026275
:101E800010BD10B5036A046A24F01004046284696A
:101E900023F0A00324F4704444EA023243EA01111F
:101EA0008261016210BD10B5406A0021C185C18404
:101EB000FFF7C2F910BD01680C3151E8002F22F480
:101EC000907241E80023002BF5D10168143151E8EC
:101ED000002F22F0010241E80023002BF5D1016B15
:101EE000012909D101680C3151E8002F22F01002BC
:101EF00041E80023002BF5D1202180F84210002179
:101F0000016370470B468162002101764176C176FC
:101F10000177817641840184AB224277CD2282779A
:101F2000C17780F82410016041608160C160016167
:101F3000416100F11B0101221846FFF781BB70B51A
:101F400004460125807E2E4610B101282BD107E0E2
:101F5000E07E617F884226D12070A676267722E037
:101F6000217FE07E6054207F0B2809D0401CC0B246
:101F700020770B2817D90025204600F07DF818E0BF
:101F80006078A17F8842F6D1A0787028F3D10C2127
:101F90002046FEF77DF9E077E17A8142EBD12676A3
:101FA000608C401C6084012204F11B01A06AFFF7D1
:101FB00047FB284670BD08B590F84210222901D091
:101FC000022008BD82684FF480539A4201D1016912
:101FD00021B1816A9A421BD04AB10AE00268816A43
:101FE0005268C2F308020A80816A891C08E002690B
:101FF00072B10268526802F07F020A70816A491C5D
:102000008162C18D491E0904090CC18503D01BE002
:1020100002685268F1E70168CA6822F02002CA60CB
:102020000168CA6822F48072CA6001684A6922F0B5
:1020300001024A61202180F8421000214163026BB5
:10204000012A03D0FFF70AFB002008BD01630168E5
:102050000C3151E8002F22F0100241E80023002B40
:10206000F5D101680A68D20602D50A68496800916C
:10207000818DFFF7E0F8E7E700210176C17601776F
:102080008176836A00F11B0101221846FFF7D8BA56
:1020900070B5044600680169E26821F440511143BB
:1020A00001612169A0680843616908432168CA6821
:1020B00041F20C639A430243CA6020684169A269F5
:1020C00021F44071114341611E492068884202D1C8
:1020D000FEF7E4FC01E0FEF7D1FC00EBC00101EBF0
:1020E0000012606864218000B2FBF0F3B3FBF1F3EF
:1020F0006FF018067343B2FBF0F5B2FBF0F605EB98
:102100008305322303EB0515B5FBF1F5B6FBF1F6BC
:1021100005F0F00505EB0615B2FBF0F6B2FBF0F0AA
:10212000B0FBF1F06FF01802504306EB800003EBB8
:102130000010B0FBF1F0216800F00F002844886027
:1021400070BD00000038014081628285C285002197
:102150004164222180F84210016921B10168CA68F6
:1021600042F48072CA6001684A6942F001024A6121
:102170000068C16841F02001C160002070472DE96E
:10218000F041984617460E460446069D27E0681C17
:1021900025D02DB1FEF73EFBA0EB0800A8421ED9CA
:1021A00020680C3050E8001F21F4D07140E8001284
:1021B000002AF5D12068143050E8001F21F00101F9
:1021C00040E80012002AF5D1202084F8410084F86C
:1021D0004200002084F840000320BDE8F081206820
:1021E000006836EA000004D00020B842CFD00020BA
:1021F000F3E70120F9E700000148FFF71FB80000EE
:10220000280100200148FFF719B8000070010020E4
:10221000FEE70907090E002804DB00F1E02080F842
:102220000014704700F00F0000F1E02080F8141D4A
:1022300070471C2860D2DFE800F05F0E1114171AF7
:102240001D202326292C2F3235383B3E4144474A56
:102250004D505356595C084600F090B8084600F0BF
:1022600011B9084600F07AB9084600F083B908466B
:1022700000F08CB9084600F095B9084600F09EB908
:10228000084600F0A7B9084600F0B0B9084600F0CB
:1022900081B8084600F08AB8084600F093B80846AE
:1022A00000F09CB8084600F0A5B8084600F0AEB8AB
:1022B000084600F0B7B8084600F0C0B8084600F07D
:1022C000C9B8084600F0D2B8084600F0E7B808469A
:1022D00000F0F0B8084600F0F9B8084600F002B97E
:1022E000084600F00BB9084600F014B9084600F0A3
:1022F0001DB9084600F026B9704770B505460024A0
:102300004FF47A7604E0304600F006F8641CA4B27C
:10231000AC42F8D370BD0000044900220B685A6239
:1023200009684A6A8242FCD3704700009800002086
:1023300010B504460120FDF7DCFF207938B1E078C4
:10234000401CE070E0780F2801D100202071207936
:1023500030B9E078401EE070E07808B901202071C3
:10236000E0780021FFF765FFE078BDE81040C0F19C
:102370001C00C0B20021FFF75CBF0000044B20B17D
:10238000012202211846FEF73FBA0022F9E70000B9
:10239000000C0140044B20B1012201211846FEF738
:1023A00033BA0022F9E7000000080140044B4FF463
:1023B000004118B101221846FEF726BA0022FAE7BA
:1023C00000100140044B4FF4804118B1012218461F
:1023D000FEF71ABA0022FAE700100140044B4FF44E
:1023E000005118B101221846FEF70EBA0022FAE792
:1023F00000100140044B4FF4007118B1012218463F
:10240000FEF702BA0022FAE7000C0140044B4FF439
:10241000807118B101221846FEF7F6B90022FAE7DA
:10242000000C0140044B20B1012280211846FEF728
:10243000EBB90022F9E70000000C0140044B20B189
:10244000012240211846FEF7DFB90022F9E700001B
:10245000000C0140044B20B1012220211846FEF758
:10246000D3B90022F9E70000000C0140044B20B171
:10247000012210211846FEF7C7B90022F9E7000033
:10248000000C0140044B20B1012201211846FEF747
:10249000BBB90022F9E70000000C0140044B20B159
:1024A000012208211846FEF7AFB90022F9E7000023
:1024B000000C0140044B4FF4004118B101221846B2
:1024C000FEF7A2B90022FAE700080140044B4FF4DE
:1024D000805118B101221846FEF796B90022FAE79A
:1024E00000080140044B4FF4006118B10122184666
:1024F000FEF78AB90022FAE700080140044B4FF4C6
:10250000004118B101221846FEF77EB90022FAE711
:10251000000C0140044B4FF4804118B101221846D1
:10252000FEF772B90022FAE7000C0140044B4FF4A9
:10253000005118B101221846FEF766B90022FAE7E9
:10254000000C0140044B4FF4805118B10122184691
:10255000FEF75AB90022FAE7000C0140044B20B103
:10256000012280211846FEF74FB90022F9E700004A
:1025700000080140044B20B1012240211846FEF71B
:1025800043B90022F9E7000000080140044B20B1E4
:10259000012220211846FEF737B90022F9E7000092
:1025A00000080140044B20B1012210211846FEF71B
:1025B0002BB90022F9E7000000080140044B20B1CC
:1025C000012208211846FEF71FB90022F9E7000092
:1025D00000080140044B20B1012204211846FEF7F7
:1025E00013B90022F9E7000000080140044B20B1B4
:1025F000012202211846FEF707B90022F9E7000080
:102600000008014070B504460120FDF772FE1B254D
:1026100005E000212846FFF70CFE6D1EEDB2A07804
:10262000A842F6D9A078401EA070A078002801D159
:102630001C20A07070BD000008B5FEF7F9F8FFF788
:102640008AFBFFF7BBF93748416941F0010141615D
:102650004069002200F00100009011460E20FEF7B4
:1026600045F90E20FEF734F9002211460F20FEF73F
:102670003DF90F20FEF72CF92C482B4D2C4E002451
:102680000560C0E901640C27C460C0E904478461A7
:10269000C461FEF709FF08B172B6FEE7FFF7F8F96B
:1026A000FFF72AFA21482349483001604FF4E1310D
:1026B000C0E90114C460C0E904478461C461FEF745
:1026C000F3FE08B172B6FEE70120FDF712FE1A48CC
:1026D000FDF7FBFD02211948FFF744FA134918489A
:1026E0004831FFF70FFC11489038FEF745FC0F48C2
:1026F0004838FEF741FC134F4FF47A783868401C95
:102700003860B04200D33C600B490C48FFF7D2F868
:10271000424629460948FFF7C1FA0948FFF7B2F8CF
:10272000ECE70000001002400038014028010020C2
:1027300040420F0000480040540000201C000020D0
:102740006C0000200800002010B5074CE07820B194
:102750000020FDF7CEFD002003E00120FDF7C9FDBC
:102760000120E07010BD00000200002010B5012023
:10277000FDF7BFFD064C00212079FFF75AFD2079B7
:10278000401CC0B22071122801D10120207110BD5F
:102790000200002010B504460120FDF7AAFD607874
:1027A0000021FFF746FD60780021401EC0B2FFF710
:1027B00040FD60780021801EC0B2FFF73AFD6078CE
:1027C0000021C01EC0B2FFF734FD60780021001F59
:1027D000C0B2FFF72EFD6078401E60706078002860
:1027E00001D11F20607010BD01020203040506071D
:1027F00008090A0B0C0D0E0F10100000000000005D
:10280000000001020304060708090000000001029D
:102810000304000034280008000000201C00000011
:1028200028010008502800081C000020840800002F
:102830004401000800000100000101000000000048
:102840000100000010000000000000000024F4005F
:04000005080000ED02
:00000001FF
