:020000040800F2
:10000000080C002089010008F119000819180008DF
:10001000BD1900088F020008FD2000080000000044
:10002000000000000000000000000000391C000873
:10003000AD02000800000000F31900083B1C000896
:10004000A3010008A3010008A3010008A301000800
:10005000A3010008A3010008A3010008A3010008F0
:10006000A3010008A3010008A3010008A3010008E0
:10007000A3010008A3010008A3010008A3010008D0
:10008000A3010008A3010008A3010008A3010008C0
:10009000A3010008A3010008A3010008A3010008B0
:1000A000A3010008A11C0008A3010008A301000887
:1000B000AD1C0008A3010008A3010008A30100086B
:1000C000A3010008A3010008A3010008A301000880
:1000D000A3010008E5200008A3010008F1200008A2
:1000E000A3010008A3010008A301000800F002F822
:1000F00000F03AF80AA090E8000C82448344AAF188
:100100000107DA4501D100F02FF8AFF2090EBAE885
:100110000F0013F0010F18BFFB1A43F0010318473B
:100120002826000048260000103A24BF78C878C16D
:10013000FAD8520724BF30C830C144BF04680C60ED
:10014000704700000023002400250026103A28BF35
:1001500078C1FBD8520728BF30C148BF0B60704739
:100160001FB51FBD10B510BD00F058F81146FFF7C0
:10017000F7FF02F099F900F076F803B4FFF7F2FF09
:1001800003BC00F07DF8000009488047094800479B
:10019000FEE7FEE7FEE7FEE7FEE7FEE7FEE7FEE737
:1001A000FEE7FEE704480549054A064B7047000094
:1001B0009D1C0008ED00000808060020080C002027
:1001C00008080020080800204FF0000200B5134680
:1001D00094469646203922BFA0E80C50A0E80C5067
:1001E000B1F12001BFF4F7AF090728BFA0E80C5018
:1001F00048BF0CC05DF804EB890028BF40F8042B11
:1002000008BF704748BF20F8022B11F0804F18BF7D
:1002100000F8012B7047704770477047754600F033
:100220002BF8AE4605006946534620F00700854688
:1002300018B020B5FFF7B6FFBDE820404FF000062C
:100240004FF000074FF000084FF0000B21F00701BE
:10025000AC46ACE8C009ACE8C009ACE8C009ACE801
:10026000C0098D46704710B50446AFF300802046A4
:10027000BDE81040FFF781BF00487047A805002087
:1002800001491820ABBEFEE7260002007047FEE7DA
:100290000346002010B50246491E04E09C5C521C37
:1002A0002044C0B2D2B28A42F8DB10BD70470421AC
:1002B00001700021C170172282701B22427001223E
:1002C0000271018201818181C180C18141824181AC
:1002D0008182C182704710B5044601F0B7FF204605
:1002E00002F038F8204602F071F8204602F07AF861
:1002F000204602F083F8204602F08CF8204602F0F7
:1003000095F8204602F09EF8204602F0A7F8204615
:1003100001F0A8FF204601F0B1FF204601F0BAFF2E
:10032000204601F0C3FF204601F0CCFF204601F03B
:10033000D5FF204601F0DEFF204601F0E7FF204612
:1003400001F0F0FF204601F0F9FF204602F00EF820
:10035000204602F017F8204602F020F82046BDE8BB
:10036000104002F027B810B590F8211000220229A1
:1003700005D00421816380F82020012010BD016890
:100380000B6823F00E030B6001680B6823F0010378
:100390000B6090F84030C46B012101FA03F36360F5
:1003A00080F8211080F82020104610BD10B590F87C
:1003B00021100024022903D00421816301243DE09F
:1003C00001680A6822F00E020A6001680A6822F0D9
:1003D00001020A601A4A0168914201D1012121E01B
:1003E000174A1432914201D110211BE0144A2832DD
:1003F000914201D1891515E0114A3C32914201D157
:1004000089140FE00E4A5032914202D14FF48031EC
:1004100008E00B4A6432914202D14FF4801101E0AE
:100420004FF08071064A083A5160012180F821108E
:10043000002180F82010416B01B18847204610BD93
:10044000080002402DE9F84FDFF8B8910024A9F127
:10045000040B23460F2709F1040AABF1040EC9E08F
:100460000125A5402A40AA427DD1674ED1F804C09B
:10047000ACEB0608B44532D014DCBCF1030F3AD023
:1004800009DCBCF1000F2AD0BCF1010F1CD0BCF17B
:10049000020F31D11DE0BCF1110F17D0BCF1120FCA
:1004A0002AD119E0B8F5881F19D006DCB8F5803FCD
:1004B00015D0B8F5801F1FD111E0B8F5001F0ED080
:1004C000B8F5041F18D10AE0CB6815E0CB681B1DF6
:1004D00012E0CB6808330FE0CB680C330CE08B687C
:1004E0002BB1012B4FF0080303D0456104E0042336
:1004F00002E0056100E00023FF2A01D8064601E082
:1005000000F104064FEA840501D9A5F12005D6F8CB
:10051000008007FA05FC28EA0C0803FA05F548EA0A
:100520000508C6F800804D68ED0062D5374DAE690C
:1005300046F00106AE61AD6924F0030605F0010541
:100540000095334D06EB050CDCF80850A607360F76
:1005500007FA06F825EA0805DFF8B880404503D118
:100560004FF0000817E044E0DFF8AC80404502D1CE
:100570004FF001080FE0DFF8A480404502D14FF0B2
:10058000020808E0DFF89880404502D14FF00308E8
:1005900001E04FF0040808FA06F848EA0508CCF82C
:1005A00008804D68D9F80060ED024D4601D516432C
:1005B00000E096432E604D68DAF80060AD025546C3
:1005C00001D5164300E096432E604D68DBF80060CD
:1005D000AD035D4601D5164300E096432E604D689D
:1005E000DEF80060ED03754601D5164300E0964342
:1005F0002E60641C0D682A46E5407FF431AFBDE8EB
:10060000F88F0000080401400000111000100240A3
:100610000000014000080140000C014000100140B2
:10062000001401400AB1016170470904FBE70000B2
:10063000014880687047000014000020024881686B
:10064000027811448160704714000020074810B5FB
:10065000016841F010010160032000F075F80F20DF
:1006600000F006F800F024F8002010BD0020024041
:1006700070B50D4D04464FF47A712878B1FBF0F057
:100680000A490968B1FBF0F000F0DCFA48B9102C17
:1006900007D200222146501E00F036F800206C6080
:1006A00070BD012070BD000014000020200000205B
:1006B0000C4808B5816941F001018161816901F04F
:1006C00001010091C16941F08051C161C06900F030
:1006D000805000900448416821F0E06141F00071D1
:1006E000416008BD0010024000000140002809DB05
:1006F00000F01F02012191404009800000F1E0203C
:10070000C0F8001170470000F0B40E4B1B680C4697
:10071000C3F30223C3F10705042D00D90425191DD5
:10072000072901D2002300E0DB1E012606FA05F1AD
:10073000491E214099409E40761E16403143F0BC30
:1007400001F0DDBC0CED00E0064900F0070208688E
:100750004FF6FF03184040EA0220034A10430860A6
:10076000704700000CED00E00000FA052DE9F047AD
:100770000F46050061D0434E306800F00700B842D4
:1007800009D2306820F0070038433060306800F04C
:100790000700B84251D128683B4C810712D5400769
:1007A00003D5606840F4E06060602878000703D5F6
:1007B000606840F4605060606068A96820F0F000F4
:1007C000084360602878C00728D06868012810D0E6
:1007D0002168022810D0890700292EDA616821F0EB
:1007E000030101436160FFF723FF804641F288392E
:1007F0000DE021688903EFE78901EDE7FFF718FFB6
:10080000A0EB0801494502D90320BDE8F0876068E4
:10081000696800F00C00B0EB810FEFD1306800F098
:100820000700B8420BD9306820F007003843306029
:10083000306800F00700B84201D00120E5E72878D1
:10084000400705D56068E96820F4E060084360600F
:100850002878000706D56068296920F4605040EACE
:10086000C100606000F038F86168084AC1F3031104
:10087000515CC8400649086006480068FFF7F8FE6A
:100880000020C2E700200240001002402E2700088E
:10089000200000201800002004480549006849682D
:1008A000044AC1F30221515CC84070472000002077
:1008B000001002403E2700080448054900684968C6
:1008C000044AC1F3C221515CC84070472000002097
:1008D000001002403E2700080E4A51680E4801F001
:1008E0000C03042B11D0082B0FD10C48C1F3834308
:1008F000C903C05C0AD55168084AC1F34041921E41
:10090000515C054A5043B0FBF1F07047044948433D
:10091000704700000010024000127A001E270008F5
:1009200000093D002DE9F84F040070D02078C04D3B
:10093000C00749D06868C0F38100012807D0686803
:10094000C0F38100022809D16868C00306D5286871
:10095000800339D560680028E7D035E06068B0F5DD
:10096000803F0BD010B1B0F5A02F11D0286820F433
:1009700080302860286820F4802002E0286840F455
:1009800080302860606890B1FFF752FE06460AE0AA
:10099000286840F480202860F0E700BFFFF748FE99
:1009A000801B642873D828688003F7D50CE0FFF714
:1009B0003FFE064605E000BFFFF73AFE801B6428B5
:1009C000F0D828688003F7D420789A4E80074FF03B
:1009D00001094FF0000839D5686810F00C0F07D0F6
:1009E0006868C0F38100022809D16868C00306D492
:1009F0002868800714D52069012808D110E02069F3
:100A0000B0B1C6F80090FFF713FE074605E00AE113
:100A1000FFF70EFEC01B0228C4D828688007F7D550
:100A20002868616920F0F80040EAC10028600DE004
:100A3000C6F80080FFF7FCFD074604E0FFF7F8FD6D
:100A4000C01B022823D828688007F7D42078000725
:100A50002CD57948A169D9B1C0F80090FFF7E8FD1D
:100A6000074604E0FFF7E4FDC01B02280FD8686AC0
:100A70008007F7D571484FF4FA510068B0FBF1F0E8
:100A8000009000BF0098411E0091FAD20EE080E075
:100A9000C0F80080FFF7CCFD074604E0FFF7C8FD73
:100AA000C01B022875D8686A8007F7D420784007F1
:100AB00060D5E8690027C00008D4E86940F080509C
:100AC000E861E869012700F0805000905C48016807
:100AD000C90513D40168834641F480710160FFF7B2
:100AE000A7FD824606E000BFFFF7A2FDA0EB0A00CB
:100AF00064284ED8DBF80000C005F5D5E068012871
:100B00000AD008B1052813D0286A20F00100286215
:100B1000286A20F0040002E0286A40F00100286200
:100B2000E06841F2883B98B1FFF782FD82460BE016
:100B3000286A40F004002862EEE700BFFFF778FD66
:100B4000A0EB0A0159455AD8286A8007F6D50CE06F
:100B5000FFF76EFD824605E0FFF76AFDA0EB0A0194
:100B600059454CD8286A8007F6D41FB1E86920F0AF
:100B70008050E861E06988B36968C1F381010229A6
:100B800044D00228C6F8608004D0FFF751FD044627
:100B900038E034E0FFF74CFD074604E0FFF748FD7E
:100BA000C01B02282BD828688001F7D4206AB0F532
:100BB000803F05D16868A16820F400300843686070
:100BC000D4E908010843696821F474110843686096
:100BD000C6F86090FFF72CFD044606E025E000BF54
:100BE000FFF726FD001B022809D828688001F7D5E9
:100BF0001BE000BFFFF71CFD001B022802D90320E9
:100C0000BDE8F88F28688001F4D40EE00128F7D001
:100C10006868226A00F48031914204D1616A00F46C
:100C20007010884201D00120EAE70020E8E70000C8
:100C30000010024000004242800442422000002096
:100C40000070004010B5401EB0F1807F01D301203C
:100C500010BD4FF0E02460610F21601701F04FFAE2
:100C60000020A06107202061002010BD7047704760
:100C700070B590F83C20012A26D0012480F83C4031
:100C8000022280F83D2003685A689D6822F07006B1
:100C90000A6832435A600D4B02689A4208D0B2F19A
:100CA000804F05D00A4B9A4202D00A4B9A4204D197
:100CB000496825F080031943916080F83D40002188
:100CC00080F83C10084670BD022070BD002C014029
:100CD000000400400008004010B5040003D094F860
:100CE0003D0010B107E0012010BD002084F83C0059
:100CF000204600F01FF8022084F83D00211D2068E6
:100D000000F0DAFF012084F8460084F83E0084F801
:100D10003F0084F8400084F8410084F8420084F8E1
:100D2000430084F8440084F8450084F83D00002026
:100D300010BD000008B5154A0168154891420ED152
:100D4000816941F4006181618069002200F40060E2
:100D5000009002211920FFF7D7FC192010E0B1F113
:100D6000804F11D1C16941F00101C161C069002208
:100D700000F00100009001211C20FFF7C5FC1C20A1
:100D8000BDE80840FFF7B2BC08BD0000002C0140E0
:100D90000010024090F83D10012901D00120704759
:100DA000022180F83D100168CA6842F00102CA6061
:100DB00000680B49884208D0B0F1804F05D009493E
:100DC000884202D00849884204D1816801F00701B5
:100DD000062903D0016841F001010160002070473D
:100DE000002C0140000400400008004070B504469B
:100DF00090F83C000025012817D0012684F83C60BB
:100E0000022084F83D002068826822F0770222F4F4
:100E10007F4282600868502838D00DDC20284FD0EF
:100E200005DC90B3102811D14AE0022070BD3028B3
:100E300046D040280AD13BE060282FD070280DD042
:100E4000B0F5805F03D0B0F5005F12D0012584F8C3
:100E50003D60002084F83C00284670BDCB68D1E995
:100E60000121206800F064FF2068816841F077016B
:100E700009E0CB68D1E90121206800F059FF206822
:100E8000816841F480418160E1E719E0CA684968FE
:100E9000206800F05FFF5021206806E0CA684968BA
:100EA000206800F068FF6021206800F04BFFCEE76B
:100EB000CA684968206800F04DFF40212068F4E7C7
:100EC000226801461046F0E770472DE9F0410446DC
:100ED0000068C66805694FF00007A90713D5B10778
:100EE00011D5F91E016101202077206880698007F3
:100EF000204602D0FFF7E8FF04E000F07EF820462D
:100F000000F07CF82777680716D5700714D521689C
:100F10006FF004000861022020772068806910F4D7
:100F2000407F204602D0FFF7CFFF04E000F065F8D5
:100F3000204600F063F82777280715D5300713D52A
:100F400021686FF008000861042020772068C069DC
:100F50008007204602D0FFF7B7FF04E000F04DF80D
:100F6000204600F04BF82777E80616D5F00614D592
:100F700021686FF010000861082020772068C069A0
:100F800010F4407F204602D0FFF79EFF04E000F0FF
:100F900034F8204600F032F82777E80708D0F00749
:100FA00006D021686FF001000861204600F028F8A3
:100FB000280608D5300606D521686FF08000086144
:100FC0002046FFF753FE680608D5700606D521684F
:100FD0006FF040000861204600F020F8A8060AD50E
:100FE000B00608D521686FF0200008612046BDE8F2
:100FF000F041FFF73CBEBDE8F0817047704700004C
:10100000044900680968884202D1034800F062BAC6
:1010100070470000E80000208800002070477047FB
:1010200070470000F8B5016804460868CA684B6953
:1010300010F00F0F4FF0000559D003F0010602F435
:101040009077374365D0C10705D0D10503D5616CD2
:1010500041F001016164410705D5D90703D0616CF6
:1010600041F002016164810705D5D90703D0616CA5
:1010700041F004016164010707D502F0200131430A
:1010800003D0616C41F008016164616C00293AD0C1
:10109000800604D5900602D5204600F006FF2068A1
:1010A0004069616CC0F38010090700D460B320462A
:1010B00000F07BFE20684069400621D5206814308E
:1010C00050E8001F21F0400140E80012002AF5D14D
:1010D000E06BA8B16D494163E06BFFF767F9002849
:1010E00011D0E06B416B01B0BDE8F04008478306CA
:1010F0000FD593060DD52046BDE8F84000F0D5BECB
:101100002046FFF78DFFF8BD2046FFF789FF656495
:10111000F8BD266B2023012E7CD1C6067AD5D606D3
:1011200078D508684868009048694FF00206400684
:1011300040D5E16B086840680004000CE8D0A28D3F
:101140008242E5D9E085886920282DD020680C30BE
:1011500050E8001F21F4807140E80012002AF5D108
:101160002068143050E8001F21F0010140E800120F
:10117000002AF5D12068143050E8001F21F040010A
:1011800040E80012002AF5D184F842302563206837
:101190000C3050E8001F21F0100140E80012002A36
:1011A000F5D1E06BFFF7DFF86663A08DE18D401AA3
:1011B00081B22AE0A08DE18D401A81B2E08D002835
:1011C000A6D00029A4D022680C3252E8000F20F4E7
:1011D000907042E80007002FF5D12068143050E8E5
:1011E000002F22F0010240E80027002FF5D184F8FB
:1011F0004230256320680C3050E8002F22F01002A6
:1012000040E80023002BF5D166632046FFF707FF77
:10121000F8BDFFE705062BD5150629D594F8410042
:101220002128F5D1A068B0F5805F01D12069B0B167
:10123000206A411C2162216800784860E08C401ED1
:101240000004000CE084E3D12068C16821F0800133
:10125000C1602068C16841F04001C160D8E7206AE0
:101260000088C0F308004860206A801C2062E5E71F
:101270004006CDD55006CBD5CA68204622F04002A4
:10128000CA6084F8413000F023F9C1E79B1D0008D3
:1012900070B5040004D094F84100002510B106E0B8
:1012A000012070BD84F84050204600F023F824202F
:1012B00084F841002068C16821F40051C1602046D3
:1012C00000F060FE2068016921F49041016120680E
:1012D000416921F02A0141612068C16841F400514F
:1012E000C1606564202084F8410084F84200656391
:1012F000002070BD70B586B0002400940194029463
:10130000039403682E482D4E022103220515B34293
:1013100026D1836943F480438361836903F4804366
:101320000493836943F0040383618069254E00F0D0
:10133000040004900802CDE900010392694630469A
:10134000FFF780F8CDE90054694630460294FFF774
:1013500079F8002211462520FFF7D6F9252028E04C
:10136000194EB34227D1C36943F48023C361C369D3
:1013700003F480230493836943F008038361806945
:10138000CDE9005100F00800CDE903200F4D69467A
:101390002846FFF757F8E814CDE9000469462846C7
:1013A0000294FFF74FF8002211462720FFF7ACF90F
:1013B0002720FFF79BF906B070BD00000038014000
:1013C000001002400008014000480040000C0140AD
:1013D00090F84230202B01D00220704721B11AB181
:1013E0000023036300F02ABE0120704710B50B49AB
:1013F000044600680968884206D109480188491CEA
:101400000180084800F02CFB07492068884204D17D
:10141000BDE81040054800F00CBD10BD30010020B3
:101420000C00002050000020004800402400002054
:101430002DE9F843044690F84100984616460D46BB
:10144000202802D00220BDE8F88385B17EB10020BB
:101450006064212084F84100FFF7EAF8A684814601
:10146000E684A0682027B0F5805F02D003E0012069
:10147000E9E7206910B12E4600250EE000260CE0B9
:101480008021204600F0F5FDA8B9C6B116F8010B81
:1014900021684860E08C401EE084E08C4B464FF0B1
:1014A0000002CDF800800028EAD14FF0400120462C
:1014B00000F0DFFD40B184F841700320C3E735F848
:1014C000020BC0F30800E3E784F841700020BAE79C
:1014D0007047000070B50446007800255A4E0D286C
:1014E00048D2DFE800F0477F7D48072531841A7134
:1014F000535C65002089401C80B22081142839D3B8
:101500002581204600F07CFE6089401C80B260810D
:101510004A282FD3658105202BE0E088401C80B24B
:10152000E080142826D3E580BDE8704001F0B8B80B
:10153000E089401C80B2E08132281BD3E58120463F
:10154000BDE8704000F096BF608A401C80B26082A7
:1015500014280FD36582204601F0B6F8A08A401CFB
:1015600080B2A082512805D3A5820120FEF7B3FEE8
:101570000720207070BDA089401C80B2A081C828BF
:10158000F8D3A581BDE8704001F000B8A089401CE7
:1015900080B2A081C828EDD3A5810A2010E0A089DF
:1015A000401C80B2A081C828E4D3A5810B2007E0AD
:1015B000A089401C80B2A081C828DBD3A5810C2063
:1015C000BDE8704000F0F4BF012405E00021204692
:1015D00000F0A5FD641CE4B270788442F6D970BDB9
:1015E000002000E00120BDE87040FEF774BE3078B6
:1015F0000028208A00F1010080B2208207D01E2836
:10160000EDD30120FEF767FE3570258270BD40F6F0
:10161000B8318842FAD3258200210A2000F07FFDEC
:1016200000210B2000F07BFD00210C2000F077FD55
:1016300000210D2000F073FD00210E2000F06FFD51
:101640000120307070BD00000600002010B5044677
:10165000007E012812D10022A118A05C521CD2B237
:1016600008730C2AF8D34FF0FF330C2204F10C015D
:101670000348FFF7DDFE204600F078FC10BD0000B7
:101680007801002070B5044690F820000D4601282E
:101690007ED194F828000126102811D10846FEF7C3
:1016A00006FE0620287000202218215C401CC0B2D3
:1016B00011741028F8D3012000F087FD84F8216010
:1016C00094F82800202811D12846FEF7F0FD0320C9
:1016D000287000202218215C401CC0B21174102810
:1016E000F8D3012000F071FD84F8216094F82800FF
:1016F000212811D12846FEF7DAFD0A2028700020A3
:101700002218215C401CC0B211741028F8D30120AB
:1017100000F05BFD84F8216094F82800222811D1A4
:101720002846FEF7C4FD0B20287000202218215CFB
:10173000401CC0B211741028F8D3012000F045FD00
:1017400084F8216094F82800232811D12846FEF758
:10175000AEFD0C20287000202218215C401CC0B275
:1017600011741028F8D3012000F02FFD84F82160B7
:1017700094F82800902812D12846FEF798FD2E7084
:1017800000202218215C401CC0B21174102800E017
:101790003CE0F6D3012000F018FD84F8216094F8B5
:1017A000280040281ED10120FEF795FD2878184911
:1017B0000870092028700120FEF78DFD2179154859
:1017C000642901D9172107E0E178C1EBC10202EBDE
:1017D00001116422B1FBF2F10170012000F0F5FC6F
:1017E00084F8216094F8280060280CD10020221889
:1017F000215C401CC0B211741028F8D3012000F005
:10180000E4FC84F82160002084F8200070BD000012
:101810000B00002007000020FEE700002DE9F04F3C
:1018200085B000242E4800940194029403948169A9
:1018300041F010018161816901F010010491816919
:1018400041F020018161816901F0200104918169E9
:1018500041F004018161816901F004010491816911
:1018600041F0080181618069DFF8789000F008009C
:101870004FF400550490002229464846FEF7D2FE58
:10188000DFF864A049F6FF17002239465046FEF7FC
:10189000C9FEDFF858B04FF2FB38002241465846E7
:1018A000FEF7C0FE0095022601250396CDE90154FE
:1018B00069464846FEF7C6FD00970396CDE90154F8
:1018C00069465046FEF7BEFDCDF800800396CDE98F
:1018D000015469465846FEF7B5FD05B0BDE8F08FE6
:1018E000001002400010014000080140000C0140BF
:1018F00010B586B000241748009401940294039414
:1019000004941349059401604721C0E901144FF67E
:10191000FF71C0E9031444618461FFF7DDF908B188
:1019200072B6FEE74FF48050009069460948FFF711
:101930005DFA08B172B6FEE7049404A9054805945F
:10194000FFF796F9002801D072B6FEE706B010BD89
:10195000002C0140A000002010B586B000241648DD
:10196000009401940294039404944FF080410594F0
:1019700001604721C0E9011440F2E731C0E90314D6
:101980008461FFF7A9F908B172B6FEE74FF4805001
:10199000009069460848FFF729FA08B172B6FEE7D9
:1019A000049404A904480594FFF762F9002801D0C3
:1019B00072B6FEE706B010BDE8000020FEE770B585
:1019C00005464FF6FF7000224AF201040DE0AB5CC1
:1019D00058400023C6074FEA500000D060405B1C0F
:1019E000DBB2082BF6D3521C92B28A42EFD370BD01
:1019F000FEE7704710B5002280F8202080F82120F3
:101A000080F8232080F8242080F8222080F82820E5
:101A10000263C26280F83420FE2380F82530FF2361
:101A200080F8263080F8271040F8082B591C40F821
:101A3000042C026042608260C2600261426105481B
:101A4000FEF7F0FDBDE81040012203490348FFF70F
:101A5000BFBC0000000801407300002030010020DE
:101A600070B5044690F82210AA253448012621B109
:101A7000012926D0032958D10FE094F8232094F8A7
:101A800025108A4251D14188491C4180227003208F
:101A900084F8220084F8246047E094F8231094F836
:101AA0002720914209D18288521C8280617084F87B
:101AB0002260022084F8240037E0204600F048F835
:101AC00033E094F8241094F82300605494F8240030
:101AD0000F280AD0401CC0B284F824000F2824D953
:101AE000EA25204600F034F825E00E212046FFF7D5
:101AF00066FF94F82410625CB2EB102FF0D1621EE6
:101B0000C0B2895C8142EBD1206B0122401C206372
:101B100084F82060A07884F8280011020848FEF7B5
:101B200081FD08490848FFF7ADFD0749012223312F
:101B30000648FFF74DFC284670BD0000000000205D
:101B400000080140880000205000002030010020E3
:101B500010B5002100F8201F0A46017181704FF472
:101B600080710548FEF75EFDBDE810400122034983
:101B70000348FFF72DBC000000080140730000205F
:101B8000300100202DE9F047044690F821000D4671
:101B9000012849D128680A27244E00F04000DFF8C8
:101BA00090A0707030786FF0400901280BD00028A9
:101BB0003AD100BF94F82100012835D1DAF800109D
:101BC000C1F8009026E0286840062DD594F834002E
:101BD0004FF00008401CC0B284F8340010280ED129
:101BE00084F82180E16A0022491CE162010184F845
:101BF00034801048FEF716FD2046FFF7A9FFDAF8FB
:101C00000010C1F8009086F80080D3E77F1E17F01F
:101C1000FF0702D028680006F8D594F83400103485
:101C2000005D686001203070BDE8F0870000002092
:101C300030010020000801407047FEF7FFBC30B5BE
:101C40008FB028216846FEF7BFFA14210AA8FEF7D4
:101C5000BBFA01210804CDE90010002402940225FA
:101C60000491CDE907504FF4E01009906846FEF763
:101C700059FE08B172B6FEE70F20CDE90A054FF410
:101C80008060CDE90C4002210AA80E94FEF76EFD9B
:101C9000002801D072B6FEE70FB030BD70470000DB
:101CA0000148FFF712B90000A00000200148FFF72B
:101CB0000CB90000E8000020F0B50268194B1A4C7E
:101CC0001A4D4FF08047984205D0B84203D0A04249
:101CD00001D0A84203D122F070064A6832439842EC
:101CE00005D0B84203D0A04201D0A84203D122F4CB
:101CF0004074CA6822434C6922F080022243026089
:101D00008A68C2620A688262984201D109690163E5
:101D1000012141610169C90703D0016921F0010175
:101D20000161F0BD002C01400004004000080040AB
:101D300010B5846842EA032224F47F440A43224314
:101D4000826010BD826822F070020A4342F00701EF
:101D50008160704710B5036A046A24F001040462CC
:101D6000846924F0F00444EA021423F00A020A43CE
:101D70008461026210BD10B5036A046A24F0100485
:101D80000462846923F0A00324F4704444EA02321C
:101D900043EA01118261016210BD10B5406A002161
:101DA000C185C184FFF73CF910BD01680C3151E8D1
:101DB000002F22F4907241E80023002BF5D1016836
:101DC000143151E8002F22F0010241E80023002BDA
:101DD000F5D1016B012909D101680C3151E8002FBF
:101DE00022F0100241E80023002BF5D1202180F8D9
:101DF00042100021016370470B4681620021017689
:101E00004176C1760177817641840184AB224277A5
:101E1000CD228277C17780F8241001604160816013
:101E2000C1600161416100F11B0101221846FFF709
:101E3000CFBA70B504460125807E2E4610B1012828
:101E40002BD107E0E07E617F884226D12070A67604
:101E5000267722E0217FE07E6054207F0B2809D086
:101E6000401CC0B220770B2817D90025204600F06F
:101E70007DF818E06078A17F8842F6D1A0787028BC
:101E8000F3D10C212046FEF703FAE077E17A814294
:101E9000EBD12676608C401C6084012204F11B018A
:101EA000A06AFFF795FA284670BD08B590F8421071
:101EB000222901D0022008BD82684FF480539A4243
:101EC00001D1016921B1816A9A421BD04AB10AE06D
:101ED0000268816A5268C2F308020A80816A891C1A
:101EE00008E0026972B10268526802F07F020A706B
:101EF000816A491C8162C18D491E0904090CC18592
:101F000003D01BE002685268F1E70168CA6822F05A
:101F10002002CA600168CA6822F48072CA6001683F
:101F20004A6922F001024A61202180F84210002112
:101F30004163026B012A03D0FFF758FA002008BD65
:101F4000016301680C3151E8002F22F0100241E8D2
:101F50000023002BF5D101680A68D20602D50A6871
:101F600049680091818DFFF75AF8E7E70021017673
:101F7000C17601778176836A00F11B010122184640
:101F8000FFF726BA70B5044600680169E26821F4DB
:101F90004051114301612169A06808436169084308
:101FA0002168CA6841F20C639A430243CA60206800
:101FB0004169A26921F44071114341611E492068C1
:101FC000884202D1FEF778FC01E0FEF765FC00EBE9
:101FD000C00101EB0012606864218000B2FBF0F3E5
:101FE000B3FBF1F36FF018067343B2FBF0F5B2FBED
:101FF000F0F605EB8305322303EB0515B5FBF1F590
:10200000B6FBF1F605F0F00505EB0615B2FBF0F6B0
:10201000B2FBF0F0B0FBF1F06FF01802504306EBAA
:10202000800003EB0010B0FBF1F0216800F00F001E
:102030002844886070BD00000038014081628285BC
:10204000C28500214164222180F84210016921B13A
:102050000168CA6842F48072CA6001684A6942F045
:1020600001024A610068C16841F02001C16000209E
:1020700070472DE9F843984617460D460446089EDA
:1020800024E0701C22D0FEF7D3FAA0EB0800B04287
:102090001AD8CEB12068C168490717D5802D15D050
:1020A000402D13D00168C94309070FD401680025EA
:1020B000406800902046FFF778FE0820606484F8AE
:1020C00040500120BDE8F8830320FBE7206800684A
:1020D00035EA000004D00020B842D2D00020F1E759
:1020E0000120F9E70148FEF79DBF00003001002004
:1020F0000148FEF797BF000078010020FEE70907BE
:10210000090E002804DB00F1E02080F8001470477D
:1021100000F00F0000F1E02080F8141D704718282F
:1021200052D2DFE800F0510C0F1215181B1E2124AB
:10213000272A2D303336393C3F4245484B4E08461E
:1021400000F084B8084600F005B9084600F03EB932
:10215000084600F047B9084600F050B9084600F0BC
:1021600059B9084600F062B9084600F06BB9084654
:1021700000F074B9084600F075B8084600F07EB863
:10218000084600F087B8084600F090B8084600F00E
:1021900099B8084600F0A2B8084600F0ABB8084667
:1021A00000F0B4B8084600F0BDB8084600F0C6B864
:1021B000084600F0DBB8084600F0E4B8084600F036
:1021C000EDB8084600F0F6B8704770B50546002433
:1021D0004FF47A7604E0304600F006F8641CA4B2AE
:1021E000AC42F8D370BD0000044900220B685A626B
:1021F00009684A6A8242FCD370470000A0000020B0
:1022000010B504460120FEF766F8207938B1E07871
:10221000401CE070E0780D2801D100202071207969
:1022200030B9E078401EE070E07808B901202071F4
:10223000E0780021FFF773FFE078BDE81040C0F1BF
:102240001800C0B20021FFF76ABF0000044B20B1A4
:10225000012280211846FEF7E5B90022F9E70000C7
:1022600000080140044B20B1012204211846FEF76A
:10227000D9B90022F9E7000000080140044B20B161
:10228000012202211846FEF7CDB90022F9E700002D
:1022900000080140044B4FF4007118B101221846A8
:1022A000FEF7C0B90022FAE7000C0140044B4FF4DE
:1022B000807118B101221846FEF7B4B90022FAE77E
:1022C000000C0140044B20B1012280211846FEF78A
:1022D000A9B90022F9E70000000C0140044B20B12D
:1022E000012240211846FEF79DB90022F9E70000BF
:1022F000000C0140044B4FF4804118B101221846F4
:10230000FEF790B90022FAE7000C0140044B20B11F
:10231000012220211846FEF785B90022F9E70000C6
:10232000000C0140044B20B1012201211846FEF7A8
:1023300079B90022F9E7000000080140044B20B100
:10234000012210211846FEF76DB90022F9E70000BE
:10235000000C0140044B20B1012201211846FEF778
:1023600061B90022F9E70000000C0140044B20B1E4
:10237000012208211846FEF755B90022F9E70000AE
:10238000000C0140044B4FF4004118B101221846E3
:10239000FEF748B90022FAE700080140044B4FF469
:1023A000805118B101221846FEF73CB90022FAE725
:1023B00000080140044B4FF4006118B10122184697
:1023C000FEF730B90022FAE700080140044B20B1C3
:1023D000012240211846FEF725B90022F9E7000046
:1023E00000080140044B20B1012202211846FEF7EB
:1023F00019B90022F9E70000000C0140044B20B19C
:10240000012220211846FEF70DB90022F9E700004D
:1024100000080140044B20B1012210211846FEF7AC
:1024200001B90022F9E7000000080140044B4FF415
:10243000005118B101221846FEF7F4B80022FAE75D
:10244000000C0140044B20B1012208211846FEF780
:10245000E9B80022F9E7000000080140044B4FF4FE
:10246000004118B101221846FEF7DCB80022FAE755
:10247000000C014070B504460120FDF72CFF172524
:1024800005E000212846FFF74AFE6D1EEDB2A07858
:10249000A842F6D9A078401EA070A078002801D1EB
:1024A0001820A07070BD0000FEF7D0F8FFF7C7FB42
:1024B000FFF7B4F92E482D4D2E4E00240560C0E9DB
:1024C00001640C27C460C0E904478461C461FEF75D
:1024D000DFFE08B172B6FEE7FFF70AFAFFF73CFA33
:1024E00023482549483001604FF4E131C0E9011427
:1024F000C460C0E904478461C461FEF7C9FE08B145
:1025000072B6FEE71A4A0020EA2190324FF47A7739
:102510001154401C80B2B842FAD30120FDF7DBFE13
:102520001648FDF7C4FE02211548FFF763FA10496B
:1025300014484831FFF760FC0D489038FEF72AFC3C
:102540000B484838FEF726FCA0460F4C6068401C3C
:102550006060B04201D3C4F804803A462946084876
:10256000FFF710FB0748FFF771F8EFE7003801406D
:102570003001002040420F00004800408800002049
:1025800050000020240000200C00002010B5074C53
:10259000A07820B10020FDF79EFE002003E001207E
:1025A000FDF799FE0120A07010BD0000060000207C
:1025B0002DE9F04100260127384C0A2819D00B28B4
:1025C0003AD00C282BD1E0784FF0010598B30021C8
:1025D0002846FFF7A4FD6D1CEDB20C2DF7D90C2594
:1025E00001212846FFF79BFD6D1CEDB2172DF7D991
:1025F00014E00C2501212846FFF791FD6D1CEDB27A
:10260000172DF7D9E0784FF0010550B10021284689
:10261000FFF785FD6D1CEDB20C2DF7D9E670BDE816
:10262000F08101212846FFF77AFD6D1CEDB20C2DDB
:10263000F7D9E770F3E71EE0012501212846FFF7EF
:102640006EFD6D1CEDB20C2DF7D9E0784FF00C0546
:1026500040B100212846FFF762FD6D1CEDB2172D39
:10266000F7D9DBE701212846FFF759FD6D1CEDB2D4
:10267000172DF7D9DDE701212846FFF750FD6D1C26
:10268000EDB20C2DF7D90C2500212846FFF747FDA8
:102690006D1CEDB2172DF7D9CBE700000600002026
:1026A00010B50120FDF717FE064C00212079FFF739
:1026B00036FD2079401CC0B22071122801D10120C2
:1026C000207110BD0600002010B504460120FDF762
:1026D00002FE60780021FFF722FD60780021401E95
:1026E000C0B2FFF71CFD60780021801EC0B2FFF76A
:1026F00016FD60780021C01EC0B2FFF710FD6078A3
:102700000021001FC0B2FFF70AFD6078401E607014
:102710006078002801D11B20607010BD0102020307
:102720000405060708090A0B0C0D0E0F1010000017
:102730000000000000000102030406070809000071
:1027400000000102030400006827000800000020C8
:1027500024000000280100088C2700082400002025
:10276000E40B00004401000800000000000001002C
:102770000101010000000000000000000100000055
:0C27800010000000000000000024F40025
:04000005080000ED02
:00000001FF
