:020000040800F2
:100000002008002089010008B7190008111800080D
:10001000B51900088F020008611E000800000000EA
:10002000000000000000000000000000751A000839
:10003000A902000800000000B9190008771A00089A
:10004000A3010008A3010008A3010008A301000800
:10005000A3010008A3010008A3010008A3010008F0
:10006000A3010008A3010008A3010008A3010008E0
:10007000A3010008A3010008910200089D020008E6
:10008000A3010008A3010008A3010008A3010008C0
:10009000A3010008A3010008A3010008A3010008B0
:1000A000A3010008DD1A0008A3010008A30100084D
:1000B000E91A0008A3010008A3010008A301000831
:1000C000A3010008A3010008A3010008A301000880
:1000D000A3010008551E0008A3010008A3010008A1
:1000E000A3010008A3010008A301000800F002F822
:1000F00000F03AF80AA090E8000C82448344AAF188
:100100000107DA4501D100F02FF8AFF2090EBAE885
:100110000F0013F0010F18BFFB1A43F0010318473B
:100120001023000030230000103A24BF78C878C1A3
:10013000FAD8520724BF30C830C144BF04680C60ED
:10014000704700000023002400250026103A28BF35
:1001500078C1FBD8520728BF30C148BF0B60704739
:100160001FB51FBD10B510BD00F058F81146FFF7C0
:10017000F7FF02F06FF800F076F803B4FFF7F2FF34
:1001800003BC00F07DF8000009488047094800479B
:10019000FEE7FEE7FEE7FEE7FEE7FEE7FEE7FEE737
:1001A000FEE7FEE704480549054A064B7047000094
:1001B000D91A0008ED0000082002002020080020C5
:1001C00020040020200400204FF0000200B5134658
:1001D00094469646203922BFA0E80C50A0E80C5067
:1001E000B1F12001BFF4F7AF090728BFA0E80C5018
:1001F00048BF0CC05DF804EB890028BF40F8042B11
:1002000008BF704748BF20F8022B11F0804F18BF7D
:1002100000F8012B7047704770477047754600F033
:100220002BF8AE4605006946534620F00700854688
:1002300018B020B5FFF7B6FFBDE820404FF000062C
:100240004FF000074FF000084FF0000B21F00701BE
:10025000AC46ACE8C009ACE8C009ACE8C009ACE801
:10026000C0098D46704710B50446AFF300802046A4
:10027000BDE81040FFF781BF00487047C001002073
:1002800001491820ABBEFEE7260002007047FEE7DA
:10029000014800F0D7B800007C010020014800F0C0
:1002A000D1B8000038010020704772B6FEE7062181
:1002B00001700021C170122282701B224270012243
:1002C0000271018201818181C180C18141824181AC
:1002D0008182704710B5044601F08EFE204601F081
:1002E0000FFF204601F048FF204601F051FF204655
:1002F00001F05AFF204601F063FF204601F06CFF39
:10030000204601F075FF204601F07EFF204601F0F7
:100310007FFE204601F088FE204601F091FE204637
:1003200001F09AFE204601F0A3FE204601F0ACFE4B
:10033000204601F0B5FE204601F0BEFE204601F049
:10034000C7FE204601F0D0FE204601F0E5FE204623
:1003500001F0EEFE204601F0F7FE2046BDE8104019
:1003600001F0FEBE10B590F821100022022905D040
:100370000421816380F82020012010BD01680B68F2
:1003800023F00E030B6001680B6823F001030B6080
:1003900090F84030C46B012101FA03F3636080F8E8
:1003A000211080F82020104610BD000010B590F8F4
:1003B00021100024022903D00421816301243DE09F
:1003C00001680A6822F00E020A6001680A6822F0D9
:1003D00001020A601A4A0168914201D1012121E01B
:1003E000174A1432914201D110211BE0144A2832DD
:1003F000914201D1891515E0114A3C32914201D157
:1004000089140FE00E4A5032914202D14FF48031EC
:1004100008E00B4A6432914202D14FF4801101E0AE
:100420004FF08071064A083A5160012180F821108E
:10043000002180F82010416B01B18847204610BD93
:10044000080002402DE9F05FC16B0C6801680B6881
:10045000D0F840C0042202FA0CF2494DDFF824A182
:10046000494E4A4FDFF828B1DFF828E122422CD06C
:100470005A072AD50A68920603D40A6822F00402B1
:100480000A600168A94201D1042219E0514501D155
:10049000402215E0B14202D14FF4806210E0B9422F
:1004A00002D14FF480420BE0594502D14FF4802233
:1004B00006E0714502D14FF4800201E04FF0806206
:1004C0002F4908394A60C16A3BE04FF0020808FA38
:1004D0000CF818EA040F4FF000094FF0010235D074
:1004E0005FEA837832D50B689B0605D40B6823F04E
:1004F0000A030B6080F821200168A94201D1022281
:1005000019E0514501D1202215E0B14202D14FF44A
:10051000007210E0B94202D14FF400520BE059458D
:1005200002D14FF4003206E0714502D14FF40012BF
:1005300001E04FF00072124908394A6080F82090BB
:10054000816A00291AD0BDE8F05F0847082505FA3E
:100550000CF5254212D01B0710D50B6823F00E03B3
:100560000B6090F84010C36B02FA01F1596082638E
:1005700080F8212080F82090016BE2E7BDE8F09F31
:10058000080002401C0002403000024044000240CB
:10059000580002406C00024030B528B308C8134927
:1005A00014221944B1FBF2F18900C163104981633F
:1005B000022141771A6843F6F0718A43D0E90014AA
:1005C0002143D0E902452C43214304692143446976
:1005D00021438469214311431960002141630122B1
:1005E00042770177084630BD012030BDF8FFFDBFDE
:1005F0000000024070B5044600F004F90546601C96
:1006000002D004480078044400F0FCF8401BA042EB
:10061000FAD370BD080000202DE9F84FDFF8B8913B
:100620000024A9F1040B23460F2709F1040AABF1BA
:10063000040EC9E00125A5402A40AA427DD1674E9B
:10064000D1F804C0ACEB0608B44532D014DCBCF1E0
:10065000030F3AD009DCBCF1000F2AD0BCF1010F26
:100660001CD0BCF1020F31D11DE0BCF1110F17D02D
:10067000BCF1120F2AD119E0B8F5881F19D006DC99
:10068000B8F5803F15D0B8F5801F1FD111E0B8F53F
:10069000001F0ED0B8F5041F18D10AE0CB6815E092
:1006A000CB681B1D12E0CB6808330FE0CB680C331E
:1006B0000CE08B682BB1012B4FF0080303D0456190
:1006C00004E0042302E0056100E00023FF2A01D8D2
:1006D000064601E000F104064FEA840501D9A5F1C0
:1006E0002005D6F8008007FA05FC28EA0C0803FA72
:1006F00005F548EA0508C6F800804D68ED0062D5AA
:10070000374DAE6946F00106AE61AD6924F00306CF
:1007100005F001050095334D06EB050CDCF808509B
:10072000A607360F07FA06F825EA0805DFF8B880AD
:10073000404503D14FF0000817E044E0DFF8AC80FB
:10074000404502D14FF001080FE0DFF8A48040459A
:1007500002D14FF0020808E0DFF89880404502D14E
:100760004FF0030801E04FF0040808FA06F848EAE1
:100770000508CCF808804D68D9F80060ED024D46B8
:1007800001D5164300E096432E604D68DAF800600C
:10079000AD02554601D5164300E096432E604D68E4
:1007A000DBF80060AD035D4601D5164300E09643DB
:1007B0002E604D68DEF80060ED03754601D51643E6
:1007C00000E096432E60641C0D682A46E5407FF4E5
:1007D00031AFBDE8F88F000008040140000011109F
:1007E000001002400000014000080140000C0140E0
:1007F00000100140001401400AB101617047090472
:10080000FBE70000014880687047000008000020F6
:100810000248816802781144816070470800002016
:10082000074810B5016841F010010160032000F095
:1008300075F80F2000F006F800F024F8002010BD35
:100840000020024070B50D4D04464FF47A712878AF
:10085000B1FBF0F00A490968B1FBF0F000F0DCFAF6
:1008600048B9102C07D200222146501E00F036F85D
:1008700000206C6070BD012070BD000008000020E9
:10088000140000200C4808B5816941F00101816124
:10089000816901F001010091C16941F08051C1619C
:1008A000C06900F0805000900448416821F0E06188
:1008B00041F00071416008BD00100240000001409D
:1008C000002809DB00F01F0201219140400980004F
:1008D00000F1E020C0F8001170470000F0B40E4BAA
:1008E0001B680C46C3F30223C3F10705042D00D98E
:1008F0000425191D072901D2002300E0DB1E012673
:1009000006FA05F1491E214099409E40761E164088
:100910003143F0BC01F0A5BA0CED00E0064900F04F
:10092000070208684FF6FF03184040EA0220034A16
:1009300010430860704700000CED00E00000FA056D
:100940002DE9F0470F46050061D0434E306800F0B6
:100950000700B84209D2306820F007003843306001
:10096000306800F00700B84251D128683B4C81073D
:1009700012D5400703D5606840F4E06060602878D5
:10098000000703D5606840F4605060606068A96843
:1009900020F0F000084360602878C00728D068681D
:1009A000012810D02168022810D0890700292EDAEA
:1009B000616821F0030101436160FFF723FF804676
:1009C00041F288390DE021688903EFE78901EDE7FD
:1009D000FFF718FFA0EB0801494502D90320BDE845
:1009E000F0876068696800F00C00B0EB810FEFD110
:1009F000306800F00700B8420BD9306820F00700DB
:100A000038433060306800F00700B84201D0012060
:100A1000E5E72878400705D56068E96820F4E060DC
:100A2000084360602878000706D56068296920F4CB
:100A3000605040EAC100606000F038F86168084A20
:100A4000C1F30311515CC8400649086006480068BC
:100A5000FFF7F8FE0020C2E700200240001002402D
:100A600016240008140000200C000020044805494A
:100A700000684968044AC1F30221515CC8407047CC
:100A800014000020001002402624000804480549F4
:100A900000684968044AC1F3C221515CC8407047EC
:100AA0001400002000100240262400080E4A51685D
:100AB0000E4801F00C03042B11D0082B0FD10C4869
:100AC000C1F38343C903C05C0AD55168084AC1F326
:100AD0004041921E515C054A5043B0FBF1F0704713
:100AE00004494843704700000010024000127A0099
:100AF0000624000800093D002DE9F84F040070D0DD
:100B00002078C04DC00749D06868C0F38100012833
:100B100007D06868C0F38100022809D16868C00363
:100B200006D52868800339D560680028E7D035E00D
:100B30006068B0F5803F0BD010B1B0F5A02F11D098
:100B4000286820F480302860286820F4802002E0A3
:100B5000286840F480302860606890B1FFF752FE4A
:100B600006460AE0286840F480202860F0E700BFCD
:100B7000FFF748FE801B642873D828688003F7D5E8
:100B80000CE0FFF73FFE064605E000BFFFF73AFE28
:100B9000801B6428F0D828688003F7D420789A4E08
:100BA00080074FF001094FF0000839D5686810F050
:100BB0000C0F07D06868C0F38100022809D168686B
:100BC000C00306D42868800714D52069012808D1FD
:100BD00010E02069B0B1C6F80090FFF713FE074699
:100BE00005E00AE1FFF70EFEC01B0228C4D8286802
:100BF0008007F7D52868616920F0F80040EAC10055
:100C000028600DE0C6F80080FFF7FCFD074604E011
:100C1000FFF7F8FDC01B022823D828688007F7D407
:100C2000207800072CD57948A169D9B1C0F8009087
:100C3000FFF7E8FD074604E0FFF7E4FDC01B0228CC
:100C40000FD8686A8007F7D571484FF4FA510068E9
:100C5000B0FBF1F0009000BF0098411E0091FAD265
:100C60000EE080E0C0F80080FFF7CCFD074604E00E
:100C7000FFF7C8FDC01B022875D8686A8007F7D443
:100C80002078400760D5E8690027C00008D4E869EB
:100C900040F08050E861E869012700F08050009042
:100CA0005C480168C90513D40168834641F480712A
:100CB0000160FFF7A7FD824606E000BFFFF7A2FD37
:100CC000A0EB0A0064284ED8DBF80000C005F5D57B
:100CD000E06801280AD008B1052813D0286A20F05E
:100CE00001002862286A20F0040002E0286A40F02F
:100CF00001002862E06841F2883B98B1FFF782FD6D
:100D000082460BE0286A40F004002862EEE700BF4C
:100D1000FFF778FDA0EB0A0159455AD8286A8007E9
:100D2000F6D50CE0FFF76EFD824605E0FFF76AFDA1
:100D3000A0EB0A0159454CD8286A8007F6D41FB1A8
:100D4000E86920F08050E861E06988B36968C1F320
:100D50008101022944D00228C6F8608004D0FFF740
:100D600051FD044638E034E0FFF74CFD074604E04F
:100D7000FFF748FDC01B02282BD828688001F7D454
:100D8000206AB0F5803F05D16868A16820F4003082
:100D900008436860D4E908010843696821F47411C4
:100DA00008436860C6F86090FFF72CFD044606E033
:100DB00025E000BFFFF726FD001B022809D82868A0
:100DC0008001F7D51BE000BFFFF71CFD001B0228C8
:100DD00002D90320BDE8F88F28688001F4D40EE022
:100DE0000128F7D06868226A00F48031914204D16A
:100DF000616A00F47010884201D00120EAE7002007
:100E0000E8E7000000100240000042428004424235
:100E1000140000200070004010B5401EB0F1807F2B
:100E200001D3012010BD4FF0E02460610F21601755
:100E300001F017F80020A06107202061002010BDFC
:100E40007047704770B590F83C20012A26D00124E5
:100E500080F83C40022280F83D2003685A689D6873
:100E600022F070060A6832435A600D4B02689A42BB
:100E700008D0B2F1804F05D00A4B9A4202D00A4BFB
:100E80009A4204D1496825F080031943916080F8A3
:100E90003D40002180F83C10084670BD022070BD26
:100EA000002C0140000400400008004010B5040080
:100EB00003D094F83D0010B107E0012010BD0020E0
:100EC00084F83C00204600F01FF8022084F83D0022
:100ED000211D206800F00EFE012084F8460084F8F1
:100EE0003E0084F83F0084F8400084F8410084F814
:100EF000420084F8430084F8440084F8450084F8F4
:100F00003D00002010BD000008B5154A01681548D5
:100F100091420ED1816941F40061816180690022B2
:100F200000F40060009002211920FFF7D7FC19207F
:100F300010E0B1F1804F11D1C16941F00101C161EF
:100F4000C069002200F00100009001211C20FFF781
:100F5000C5FC1C20BDE80840FFF7B2BC08BD00007E
:100F6000002C01400010024090F83D10012901D0F2
:100F700001207047022180F83D100168CA6842F0E4
:100F80000102CA6000680B49884208D0B0F1804F66
:100F900005D00949884202D00849884204D18168B5
:100FA00001F00701062903D0016841F00101016049
:100FB00000207047002C0140000400400008004061
:100FC00070B5044690F83C000025012817D0012692
:100FD00084F83C60022084F83D002068826822F09A
:100FE000770222F47F4282600868502838D00DDCF6
:100FF00020284FD005DC90B3102811D14AE0022000
:1010000070BD302846D040280AD13BE060282FD060
:1010100070280DD0B0F5805F03D0B0F5005F12D01E
:10102000012584F83D60002084F83C00284670BD0E
:10103000CB68D1E90121206800F092FD2068816829
:1010400041F0770109E0CB68D1E90121206800F087
:1010500087FD2068816841F480418160E1E719E003
:10106000CA684968206800F08DFD5021206806E0BC
:10107000CA684968206800F096FD6021206800F089
:1010800079FDCEE7CA684968206800F07BFD402101
:101090002068F4E7226801461046F0E7704770B513
:1010A0000446006801694FF00005C943890715D45B
:1010B000C168C943890711D4E91E01610120207765
:1010C000206880698007204602D0FFF7E7FF04E030
:1010D00000F098F8204600F096F82577206801691E
:1010E000C943490717D4C168C943490713D46FF0EE
:1010F00004010161022020772068806910F4407F9C
:10110000204602D0FFF7CAFF04E000F07BF820463B
:1011100000F079F8257720680169C943090716D4DA
:10112000C168C943090712D46FF0080101610420A6
:1011300020772068C0698007204602D0FFF7AEFF05
:1011400004E000F05FF8204600F05DF825772068A5
:101150000169C943C90617D4C168C943C90613D474
:101160006FF010010161082020772068C06910F439
:10117000407F204602D0FFF791FF04E000F042F8E4
:10118000204600F040F8257720680169C943C90767
:1011900008D1C168C943C90704D1891E016120462D
:1011A00000F032F820680169C943090609D4C16812
:1011B000C943090605D46FF0800101612046FFF79D
:1011C0003FFE20680169C943490609D4C168C94383
:1011D000490605D46FF040010161204600F022F875
:1011E00020680169C94389060BD4C168C9438906CF
:1011F00007D46FF0200101612046BDE87040FFF781
:1012000020BE70BD70477047044900680968884275
:1012100002D1034800F054BA70470000A800002033
:10122000480000207047704770470000F8B501681B
:1012300004460868CA684B6910F00F0F4FF00005AC
:1012400059D003F0010602F49077374365D0C10707
:1012500005D0D10503D5616C41F0010161644107FE
:1012600005D5D90703D0616C41F0020161648107A3
:1012700005D5D90703D0616C41F004016164010711
:1012800007D502F02001314303D0616C41F0080121
:101290006164616C00293AD0800604D5900602D5BD
:1012A000204600F0C1FC20684069616CC0F38010EA
:1012B000090700D460B3204600F08FFC2068406925
:1012C000400621D52068143050E8001F21F040016D
:1012D00040E80012002AF5D1E06BA8B16D494163E6
:1012E000E06BFFF763F8002811D0E06B416B01B0B1
:1012F000BDE8F040084783060FD593060DD520467C
:10130000BDE8F84000F090BC2046FFF78DFFF8BD27
:101310002046FFF789FF6564F8BD266B2023012E68
:101320007CD1C6067AD5D60678D50868486800907C
:1013300048694FF00206400640D5E16B08684068F6
:101340000004000CE8D0A28D8242E5D9E0858869CE
:1013500020282DD020680C3050E8001F21F4807127
:1013600040E80012002AF5D12068143050E8001F30
:1013700021F0010140E80012002AF5D12068143064
:1013800050E8001F21F0400140E80012002AF5D18A
:1013900084F84230256320680C3050E8001F21F0AB
:1013A000100140E80012002AF5D1E06BFEF7DAFFE9
:1013B0006663A08DE18D401A81B22AE0A08DE18D97
:1013C000401A81B2E08D0028A6D00029A4D022685E
:1013D0000C3252E8000F20F4907042E80007002F12
:1013E000F5D12068143050E8002F22F0010240E8C7
:1013F0000027002FF5D184F84230256320680C3097
:1014000050E8002F22F0100240E80023002BF5D115
:1014100066632046FFF707FFF8BDFFE705062BD5FB
:10142000150629D594F841002128F5D1A068B0F51A
:10143000805F01D12069B0B1206A411C216221681E
:1014400000784860E08C401E0004000CE084E3D18A
:101450002068C16821F08001C1602068C16841F046
:101460004001C160D8E7206A0088C0F308004860E6
:10147000206A801C2062E5E74006CDD55006CBD51A
:10148000CA68204622F04002CA6084F8413000F069
:1014900016F9C1E7CB1B000870B5040004D094F81E
:1014A0004100002510B106E0012070BD84F84050D5
:1014B000204600F023F8242084F841002068C16809
:1014C00021F40051C160204600F010FC2068016941
:1014D00021F4904101612068416921F02A014161B4
:1014E0002068C16841F40051C1606564202084F81F
:1014F000410084F842006563002070BDF0B585B0FE
:1015000000240646009401940294039400682C4938
:10151000884252D12B48816941F4804181618169BF
:1015200001F480410491816941F004018161806985
:10153000254D00F0040004904FF40070009002204C
:1015400001900320039069462846FFF765F82815A7
:10155000CDE90004694628460294FFF75DF81C4D6A
:101560001A488027C5E90004C5E902472C616C616F
:10157000AC612846EC61FFF70FF808B1FEF795FE65
:10158000F5636E621148134D143801C5102091C5E2
:10159000104845F810496C61AC61EC61FEF7FCFF46
:1015A00008B1FEF782FEB5630022114625206E6267
:1015B000FFF794F92520FFF783F905B0F0BD00008F
:1015C000003801400010024000080140580002406D
:1015D000380100207C01002090F84230202B01D0FF
:1015E0000220704721B11AB10023036300F0DABB77
:1015F0000120704710B50068074988420AD10748A2
:1016000000F0FBF905490122BDE8104025310448EE
:10161000FFF7E2BF10BD00000038014018000020B5
:10162000F00000202DE9F843044690F841001F46E1
:1016300016460D46202802D00220BDE8F8837DB171
:1016400076B100206064212084F84100FFF7DAF8C9
:10165000A6848046E684A068B0F5805F02D003E0EF
:101660000120EAE7206910B12E4600250EE0002691
:101670000CE08021204600F0B0FBA0B9AEB116F816
:10168000010B21684860E08C401EE084E08C4346FA
:101690004FF0000200970028EBD14FF040012046A8
:1016A00000F09BFB30B10320C7E735F8020BC0F315
:1016B0000800E6E7202084F841000020BDE77047DD
:1016C00070B504460078002506282AD02078052821
:1016D0003AD02078072842D0207808284BD02078AC
:1016E00003285FD02078022867D02078092817D1F6
:1016F000464EF0780028208A00F1010080B2208256
:1017000060D00F280CD325820120FEF7E3FDF57091
:101710003078401EC0B23070042801D117203070DC
:1017200070BD2089401C80B220811E28F8D32581FD
:10173000204600F0FCFB6089401C80B260814A2892
:10174000EED3658107202BE0E088401C80B2E0806A
:101750001428E5D3E580BDE8704000F015BEE089AF
:10176000401C80B2E0816428DAD3E5812046BDE8E0
:10177000704000F055BD608A401C80B260821E2817
:10178000CED36582204600F013FEA08A401C80B2B2
:10179000A0825128C4D3A5820120FEF79BFD092019
:1017A000207070BDA089401C80B2A081C828F8D3E9
:1017B000A581BDE8704000F0D5BDBDE870400020B7
:1017C000FEF788BDB0F57A7FEBD325820021307813
:1017D00000F057FB30780021401EC0B200F051FBF2
:1017E00030780021801EC0B200F04BFB3078002121
:1017F000C01EC0B200F045FB30780021001FC0B20F
:1018000000F03FFB0120F07070BD000000000020E0
:10181000FEE700002DE9F04F85B000242E4800942B
:10182000019402940394816941F0100181618169FE
:1018300001F010010491816941F020018161816909
:1018400001F020010491816941F004018161816905
:1018500001F004010491816941F00801816180690E
:10186000DFF8789000F008004FF400550490002253
:1018700029464846FEF7C0FFDFF864A049F6FF1787
:10188000002239465046FEF7B7FFDFF858B04FF256
:10189000FB38002241465846FEF7AEFF009502266F
:1018A00001250396CDE9015469464846FEF7B4FE8A
:1018B00000970396CDE9015469465046FEF7ACFE09
:1018C000CDF800800396CDE9015469465846FEF7ED
:1018D000A3FE05B0BDE8F08F0010024000100140EB
:1018E00000080140000C014010B586B000241748E4
:1018F00000940194029403940494134905940160A4
:101900004721C0E901144FF6FF71C0E90314446197
:101910008461FFF7CBFA08B172B6FEE74FF480504E
:10192000009069460948FFF74BFB08B172B6FEE725
:10193000049404A905480594FFF784FA002801D00F
:1019400072B6FEE706B010BD002C0140600000201A
:1019500010B586B0002416480094019402940394B4
:1019600004944FF08041059401604721C0E90114BF
:1019700040F2E731C0E903148461FFF797FA08B138
:1019800072B6FEE74FF48050009069460848FFF7B2
:1019900017FB08B172B6FEE7049404A90448059445
:1019A000FFF750FA002801D072B6FEE706B010BD6E
:1019B000A8000020FEE7FEE770470022026280F8E0
:1019C000252080F8262080F8242080F82A20C2854F
:1019D0008285FE2380F82730FF2380F8283080F8A6
:1019E000291040F80C2B40F8082C40F8042C026019
:1019F00042608260C2600261704710B590F82410A6
:101A0000012291B101290FD190F8263090F82510CC
:101A1000C15490F8263000210F2B12D05B1CDAB293
:101A200080F826200F2A1BD810BD90F8251090F8BA
:101A300027309942F8D1017080F8242080F82620C0
:101A400010BDC37B90F82840A34209D1837890F859
:101A50002940A34204D10262C18D491CC18510BD39
:101A600080F826100162016041608160C16080F8E9
:101A7000241010BD7047FEF7CBBE30B58FB02821C3
:101A80006846FEF7A1FB14210AA8FEF79DFB012181
:101A90000804CDE900100024029402250491CDE948
:101AA00007504FF4E01009906846FFF725F808B199
:101AB00072B6FEE70F20CDE90A054FF48060CDE94C
:101AC0000C4002210AA80E94FEF73AFF002801D02C
:101AD00072B6FEE70FB030BD704700000148FFF757
:101AE000DEBA0000600000200148FFF7D8BA00000D
:101AF000A8000020F0B50268164B174C174D4FF0A8
:101B00008047984205D0B84203D0A04201D0A842F5
:101B100003D122F070064A683243984205D0B84299
:101B200003D0A04201D0A84203D122F44074CA6875
:101B300022434C6922F08002224302608A68C2621A
:101B40000A688262984201D10969016301214161F9
:101B5000F0BD0000002C01400004004000080040DF
:101B600010B5846842EA032224F47F440A432243E6
:101B7000826010BD826822F070020A4342F00701C1
:101B80008160704710B5036A046A24F0010404629E
:101B9000846924F0F00444EA021423F00A020A43A0
:101BA0008461026210BD10B5036A046A24F0100457
:101BB0000462846923F0A00324F4704444EA0232EE
:101BC00043EA01118261016210BD10B5406A002133
:101BD000C185C184FFF728FB10BD01680C3151E8B5
:101BE000002F22F4907241E80023002BF5D1016808
:101BF000143151E8002F22F0010241E80023002BAC
:101C0000F5D1016B012909D101680C3151E8002F90
:101C100022F0100241E80023002BF5D1202180F8AA
:101C2000421000210163704708B590F84210222944
:101C300001D0022008BD82684FF480539A4201D13E
:101C4000016921B1816A9A421BD04AB10AE0026857
:101C5000816A5268C2F308020A80816A891C08E01E
:101C6000026972B10268526802F07F020A70816AEA
:101C7000491C8162C18D491E0904090CC18503D02C
:101C80001BE002685268F1E70168CA6822F020028E
:101C9000CA600168CA6822F48072CA6001684A6931
:101CA00022F001024A61202180F8421000214163A4
:101CB000026B012A03D0FFF79DFC002008BD0163E1
:101CC00001680C3151E8002F22F0100241E8002396
:101CD000002BF5D101680A68D20602D50A68496866
:101CE0000091818DFFF79FFAE7E7000070B5044689
:101CF00000680169E26821F44051114301612169E2
:101D0000A0680843616908432168CA6841F20C630E
:101D10009A430243CA6020684169A26921F4407174
:101D2000114341611E492068884202D1FEF7AEFE90
:101D300001E0FEF79BFE00EBC00101EB00126068C2
:101D400064218000B2FBF0F3B3FBF1F36FF01806EF
:101D50007343B2FBF0F5B2FBF0F605EB83053223DB
:101D600003EB0515B5FBF1F5B6FBF1F605F0F00553
:101D700005EB0615B2FBF0F6B2FBF0F0B0FBF1F0AC
:101D80006FF01802504306EB800003EB0010B0FB2D
:101D9000F1F0216800F00F002844886070BD000059
:101DA0000038014081628285C28500214164222180
:101DB00080F84210016921B10168CA6842F480725A
:101DC000CA6001684A6942F001024A610068C1685C
:101DD00041F02001C160002070472DE9F041984694
:101DE00017460E460446069D27E0681C25D02DB1F7
:101DF000FEF708FDA0EB0800A8421ED920680C30B1
:101E000050E8001F21F4D07140E80012002AF5D1FB
:101E10002068143050E8001F21F0010140E8001252
:101E2000002AF5D1202084F8410084F842000020E7
:101E300084F840000320BDE8F0812068006836EA9D
:101E4000000004D00020B842CFD00020F3E70120EA
:101E5000F9E700000148FFF7E9B90000F0000020B1
:101E6000FEE70907090E002804DB00F1E02080F8F6
:101E70000014704700F00F0000F1E02080F8141DFE
:101E80007047182852D2DFE800F0510C0F121518D5
:101E90001B1E2124272A2D303336393C3F4245482A
:101EA0004B4E084600F0A8B8084600F029B908468D
:101EB00000F062B9084600F06BB9084600F074B94A
:101EC000084600F07DB9084600F086B9084600F0E3
:101ED0008FB9084600F098B9084600F099B808464E
:101EE00000F0A2B8084600F0ABB8084600F0B4B85D
:101EF000084600F0BDB8084600F0C6B8084600F035
:101F0000CFB8084600F0D8B8084600F0E1B8084657
:101F100000F0EAB8084600F0FFB8084600F008B93B
:101F2000084600F011B9084600F01AB9704710B51C
:101F300004460120FEF7CEF9207938B1E078401C44
:101F4000E070E0780D2801D100202071207930B9AF
:101F5000E078401EE070E07808B901202071E07858
:101F60000021FFF78EFFE078BDE81040C0F11800B7
:101F7000C0B20021FFF785BF2DE9F0410446C078CB
:101F80000F464FF0FF3604F11005102815D1084612
:101F9000FEF78DF90820387000202218215C401CC3
:101FA000C0B211741028F8D30120FEF723FB33468A
:101FB000102229460F48FFF735FBE078202817D17B
:101FC0003846FEF774F90320387000202218215C8F
:101FD000401CC0B211741028F8D30120FEF70AFB90
:101FE00033462946BDE8F04110220248FFF71ABBEC
:101FF000BDE8F081F0000020044B20B101228021D7
:102000001846FEF7F9BB0022F9E70000000801407E
:10201000044B20B1012204211846FEF7EDBB00223B
:10202000F9E7000000080140044B20B10122022121
:102030001846FEF7E1BB0022F9E700000008014066
:10204000044B4FF4007118B101221846FEF7D4BBBF
:102050000022FAE7000C0140044B4FF4807118B1E4
:1020600001221846FEF7C8BB0022FAE7000C014027
:10207000044B20B1012280211846FEF7BDBB00228F
:10208000F9E70000000C0140044B20B1012240217F
:102090001846FEF7B1BB0022F9E70000000C014032
:1020A000044B4FF4804118B101221846FEF7A4BB3F
:1020B0000022FAE7000C0140044B20B1012220214C
:1020C0001846FEF799BB0022F9E70000000C01401A
:1020D000044B20B1012201211846FEF78DBB0022DE
:1020E000F9E7000000080140044B20B10122102153
:1020F0001846FEF781BB0022F9E70000000C014002
:10210000044B20B1012201211846FEF775BB0022C5
:10211000F9E70000000C0140044B20B10122082126
:102120001846FEF769BB0022F9E70000000C0140E9
:10213000044B4FF4004118B101221846FEF75CBB76
:102140000022FAE700080140044B4FF4805118B117
:1021500001221846FEF750BB0022FAE700080140B2
:10216000044B4FF4006118B101221846FEF744BB3E
:102170000022FAE700080140044B20B1012240216F
:102180001846FEF739BB0022F9E7000000080140BD
:10219000044B20B1012202211846FEF72DBB00227C
:1021A000F9E70000000C0140044B20B1012220217E
:1021B0001846FEF721BB0022F9E7000000080140A5
:1021C000044B20B1012210211846FEF715BB002256
:1021D000F9E7000000080140044B4FF4005118B12A
:1021E00001221846FEF708BB0022FAE7000C014066
:1021F000044B20B1012208211846FEF7FDBA002247
:10220000F9E7000000080140044B4FF4004118B109
:1022100001221846FEF7F0BA0022FAE7000C01404E
:1022200070B504460120FEF755F8172505E000219A
:102230002846FFF726FE6D1EEDB2A078A842F6D91B
:10224000A078401EA070A078002801D11820A070AE
:1022500070BD000008B5FEF7E3FA3A48FEF727F82C
:1022600002213948FFF7A9FBFFF707FCFFF7D2FA75
:102270003648416941F0010141614069002200F0A6
:102280000100009011460E20FEF728FB0E20FEF7FD
:1022900017FB002211460F20FEF720FB0F20FEF750
:1022A0000FFB2C482A492C4D01600024C0E9015441
:1022B0000C21C460C0E904418461C461FFF7ECF8FB
:1022C00008B172B6FEE7FFF70FFBFFF741FB0120F5
:1022D000FEF700F8214F4FF4807600223146384651
:1022E000FEF78AFA1B489038FEF73EFE1948483838
:1022F000FEF73AFE1449012225311648FFF76CF922
:10230000A846DFF85C90104DD9F80010491CC9F8B8
:102310000010414501D3C9F80040286A0128F3D1D3
:10232000012231463846FEF767FA064906482C6214
:10233000FFF722FE002231463846FEF75DFA85F8A7
:102340002440E1E74800002018000020001002406F
:1023500000380140F000002040420F00000801401A
:102360000400002010B5074C607820B10020FDF774
:10237000B1FF002003E00120FDF7ACFF01206070F9
:1023800010BD00000000002010B50120FDF7A2FFE5
:10239000064C0021A078FFF774FDA078401CC0B265
:1023A000A070122801D10120A07010BD00000020F3
:1023B00010B504460120FDF78DFF60780021FFF77E
:1023C00060FD60780021401EC0B2FFF75AFD6078C2
:1023D0000021801EC0B2FFF754FD60780021C01EAE
:1023E000C0B2FFF74EFD60780021001FC0B2FFF7BA
:1023F00048FD6078401E60706078002801D11B2085
:10240000607010BD010202030405060708090A0BEB
:102410000C0D0E0F10100000000000000000010263
:10242000030406070809000000000102030400007D
:1024300050240008000000201800000028010008B7
:102440006824000818000020080800004401000863
:102450001801010100000000010000001000000050
:08246000000000000024F4005C
:04000005080000ED02
:00000001FF
